:020000040800F2
:1000000028040020A914000845140008471400081B
:10001000491400084B1400084D14000800000000AB
:100020000000000000000000000000004F14000865
:100030005114000800000000531400085514000873
:10004000CD140008D1140008D5140008D9140008F4
:10005000DD140008E1140008E5140008E9140008A4
:10006000ED140008F1140008F5140008F914000854
:10007000FD14000801150008051500080915000801
:100080000D150008111500081515000819150008B0
:100090001D15000821150008251500082915000860
:1000A0002D15000831150008351500083915000810
:1000B0003D150008411500084515000849150008C0
:1000C0004D15000851150008551500085915000870
:1000D0005D15000861150008651500086915000820
:1000E0006D15000871150008751500082DE9F84315
:1000F000040000252078C0076BD5DFF8D40501681F
:1001000011F00C01042907D0016811F00C01082935
:100110000CD10068C00309D5DFF8B0050068800382
:1001200057D56068002854D10120BDE16068B0F562
:10013000803F06D1DFF89405016851F480310160F9
:1001400026E0606800280AD1DFF88005016831F4F4
:1001500080310160016831F48021016018E060683D
:10016000B0F5A02F0AD1DFF86405016851F48021B1
:100170000160016851F48031016009E0DFF84C054D
:10018000016831F480310160016831F4802101603F
:10019000606800280ED000F0BBFA0500DFF82C05DF
:1001A0000068800315D400F0B3FA401B6528F5D32E
:1001B000032079E100F0ACFA0500DFF810050068D3
:1001C000800306D500F0A4FA401B6528F5D3032070
:1001D0006AE12078800750D5DFF8F404016811F057
:1001E0000C0F07D0016811F00C01082914D1006828
:1001F000C00311D4DFF8D4040168890704D521694C
:10020000012901D001204FE1016831F0F801626954
:1002100051EAC201016030E0206900281AD00120B3
:10022000DFF8BC14086000F073FA0500DFF89C04E6
:100230000168890706D400F06BFA401B0328F5D348
:10024000032031E1016831F0F801626951EAC2012D
:10025000016012E00020DFF88814086000F058FA0E
:100260000500DFF868040068800706D500F050FA42
:10027000401B0328F5D3032016E1207800072CD576
:10028000A069002816D00120DFF85814086000F09B
:100290003FFA0500DFF844040068800706D400F048
:1002A00037FA401B0328F5D30320FDE0012000F0BE
:1002B000F9F912E00020DFF82C14086000F028FAA9
:1002C0000500DFF818040068800706D500F020FA62
:1002D000401B0328F5D30320E6E02078400740F1D7
:1002E00088800026DFF800743868C0000AD43868B7
:1002F00050F080503860386810F0805000900098BE
:1003000001200600DFF8E483D8F80000C00513D40C
:10031000D8F8000050F48070C8F8000000F0F8F938
:100320000500D8F80000C00506D400F0F1F9401B24
:100330006528F6D30320B7E0E068012806D1DFF88E
:10034000B003016851F00101016025E0E068002878
:100350000AD1DFF89C03016849084900016001687F
:1003600031F00401016017E0E06805280AD1DFF8E8
:100370008003016851F004010160016851F001013E
:10038000016009E0DFF8680301684908490001607D
:10039000016831F004010160E068002810D000F02D
:1003A000B7F90500DFF848030068800719D400F0AA
:1003B000AFF9401B41F289318842F3D3032073E047
:1003C00000F0A6F90500DFF828030068800708D5CB
:1003D00000F09EF9401B41F289318842F3D303209B
:1003E00062E03000C0B2012803D1386830F080509C
:1003F0003860E069002856D0DFF8D472386810F011
:100400000C0008284DD0E069022837D1DFF8E492CB
:100410000020C9F8000000F07BF90600DFF8AC828C
:10042000D8F80000800106D500F072F9801B03287F
:10043000F4D3032038E0206AB0F5803F05D1396855
:1004400031F40031A06801433960396831F4741126
:10045000206A0143606A014339600120C9F8000045
:1004600000F056F90500D8F8000080011BD400F018
:100470004FF9401B0328F6D3032015E00020DFF8D6
:100480007412086000F044F90500DFF840020068CB
:10049000800108D500F03CF9401B0328F5D3032068
:1004A00002E0012000E00020BDE8F2832DE9F041E8
:1004B00004000D000026DFF84072386810F00700D5
:1004C000A8420BD23868C008C0002843386038689A
:1004D00010F00700A84201D001209BE0207880079F
:1004E00007D5DFF8EC110A6832F0F002A068024389
:1004F0000A602078C00758D56068012806D1DFF867
:10050000CC010068800311D4012083E060680228D8
:1005100006D1DFF8B8010068800107D4012079E036
:100520006A480068800701D4012073E0DFF8A081E9
:10053000D8F800108908890060680143C8F80010E5
:1005400000F0E6F80600606801280ED1D8F8000037
:1005500010F00C00042828D000F0DAF8801B41F2DB
:1005600089318842F2D3032054E0606802280ED11A
:10057000D8F8000010F00C00082816D000F0C8F8D9
:10058000801B41F289318842F2D3032042E0D8F83F
:10059000000010F00C0F08D000F0BAF8801B41F2F8
:1005A00089318842F3D3032034E0386810F0070023
:1005B00085420BD23868C008C000284338603868CC
:1005C00010F00700A84201D0012023E02078400766
:1005D00006D53F490A6832F4E062E06802430A60E7
:1005E0002078000707D53A48016831F46051226944
:1005F00051EAC201016000F00FF84049344A126824
:10060000C2F30312895CC84033490860002000F03F
:1006100085F80020BDE8F081F0B585B001A8384923
:10062000102200F0A1F837480088ADF80000002043
:100630000021002200230025254E346814F00C0709
:10064000042F02D0082F02D01BE022481AE001A894
:10065000C4F38347C05D0300E0030CD568463668E9
:10066000C6F34046805D01001A4800FB03F0B0FB72
:10067000F1F0020003E0244800FB03F00200100048
:1006800000E0144805B0F0BD13480068704780B51D
:10069000FFF7FAFF1D490E4A1268C2F3C222895CB5
:1006A000C84002BD81B00C490968C9084FF47A728C
:1006B000B1FBF2F101FB00F1009100BF00994A1E6D
:1006C00000920029F9D101B07047000000100240EB
:1006D0000410024000127A0004000020241002409E
:1006E00000004242800442421C1002400070004060
:1006F000201002406000424200200240981400088E
:1007000078140008EE07000800093D00C414000832
:1007100001480068704700BF1C00002010B50400AD
:100720004FF47A700D490978B0FBF1F00C49096873
:10073000B1FBF0F000F0D9F8002801D001200CE066
:10074000102C09D2002221005FF0FF3000F0B8F831
:1007500004480460002000E0012010BD20000020BB
:100760000400002000000020103A07D330B4B1E8A4
:100770003810103AA0E83810F9D230BC530724BF23
:10078000B1E80810A0E8081044BF51F8043B40F855
:10079000043BD20724BF31F8022B20F8022B44BFC0
:1007A0000B7803707047121F17D35B0009D151F803
:1007B000043B20F8023B1B0C121F20F8023BF6D230
:1007C0000BE051F8043B00F8013B1B0A20F8023B08
:1007D0001B0C121F00F8013BF3D238BF121D521E32
:1007E00024BF11F8013B00F8013BF8D87047010223
:1007F00010B410F00703474C22684FF6FF010A407F
:10080000454951EA03210A43226010BC7047414820
:100810000068C0F30220704710B4020052B2002AF0
:1008200009D50A013D4B040064B214F00F042344BF
:1008300003F8042C04E00A01394B040064B21A5591
:1008400010BC704770B4030013F00704D4F1070024
:10085000052801D3042001E0D4F10700251D072D50
:1008600001D2002500E0E51E012616FA00F0401E28
:100870000140A94016FA05F56D1E2A4011430800F3
:1008800070BC704710B50400601EB0F1807F01D3CA
:1008900001200EE0601E234908600F215FF0FF3049
:1008A000FFF7BAFF00202049086007201F490860B1
:1008B000002010BD10B504002000FFF799FF10BD07
:1008C0002DE9F04104000D0016000027FFF79FFFFF
:1008D0008046320029004046FFF7B4FF01002000A7
:1008E00040B2FFF799FFBDE8F08110B50400200089
:1008F000FFF7C8FF10BD042805D10C490A6852F063
:1009000004020A6004E009490A6832F004020A603D
:10091000704700000CED00E00000FA0518ED00E063
:1009200000E400E014E000E018E000E010E000E087
:1009300080B500F001F801BD7047010270B50400F8
:100940000026002C01D1012065E0607C002804D144
:1009500000202074200000F0A5FA0220607420001E
:1009600000F03EF9002803D004206074012052E01A
:10097000200000F0BFF9002803D00420607401209B
:1009800049E020684068C008C00021684860A0684D
:10099000002805D0DFF83C020168490849000160E1
:1009A000DFF834120A6832F46072A06802430A6009
:1009B000606810F1010F01D065680AE0012000F0C5
:1009C0001DFB0500002D03D104206074012022E0EE
:1009D0006D1E206880680009000150EA15402168FA
:1009E00088602068C168090C0904A8B20143206826
:1009F000C160200000F099F9002803D00420607441
:100A0000012008E00020E073012060730120A07342
:100A100001206074002070BD2DE9F84304000D0032
:100A2000160000275FF00008002C01D0002D01D136
:100A300001205BE0207C012801D1022056E001204A
:100A4000207402206074002E0CD195F800904FF4B1
:100A500061616A783C20424301FB0929A87810EBC8
:100A6000090914E0287800F07BF98146687800F0E5
:100A700077F95FFA89F94FF46162C0B23C214843CB
:100A800002FB0909A87800F06BF910EB0909494647
:100A9000200000F0E7F8002805D004206074002052
:100AA0002074012022E02068406830F005002168B1
:100AB0004860200000F0F3F8070017F1010F10D094
:100AC0004F450ED2DFF81401C7193900200000F09D
:100AD000F4F8002805D00420607400202074012060
:100AE00004E001206074002020740020BDE8F2833F
:100AF0002DE9F84F04000D0016005FF0000A0027F2
:100B00005FF0000B002C01D0002D01D101205FE02F
:100B1000207C012801D102205AE00120207402200B
:100B20006074002E06D1E878E07368786073A87866
:100B3000A0730BE0E87800F013F9E073687800F038
:100B40000FF96073A87800F00BF9A073A27B617BAA
:100B5000E07B00F012F92073207B2870200000F069
:100B60005EF880464FF46160B8FBF0F9B9F1190FF7
:100B700029D3DFF868A01820B9FBF0F00AFB108831
:100B80004146200000F06EF8002805D00420607473
:100B90000020207401201BE0200000F080F80700F6
:100BA00017F1010F0FD047450DD21AEB0707390097
:100BB000200000F082F8002805D004206074002096
:100BC0002074012004E001206074002020740020C3
:100BD000BDE8F28F306C00402C6C00408051010069
:100BE00070B504000025002C01D1012016E020681A
:100BF000406830F0080021684860FFF789FD060072
:100C000020684068000708D4FFF782FD801B40F28F
:100C1000E9318842F4D3032000E0002070BDF0B534
:100C2000010000200026002700220B689B690C6849
:100C3000E4690D68AD699C46AE461FFA8CFC1FFA4C
:100C40008EFEF44507D02E00B6B20868C06980B2A7
:100C500050EA064005E01E00B6B2200080B250EA1D
:100C60000640F0BD70B504000D000026200000F025
:100C700041F8002802D0012006000DE02800000CF9
:100C800021688861A8B22168C861200000F04DF891
:100C9000002801D0012006003000C0B270BD10B4A1
:100CA0000100002200240868036A0868406A9BB2B9
:100CB00080B250EA034010BC704770B504000D00CC
:100CC0000026200000F016F8002802D001200600BF
:100CD0000DE02800000C21680862A8B22168486273
:100CE000200000F022F8002801D00120060030008A
:100CF000C0B270BD70B504000026FFF709FD050005
:100D000020684068800608D4FFF702FD401B40F2CF
:100D1000E9318842F4D3032006E02068406850F0AF
:100D2000100021684860002070BD70B504000025E7
:100D30002068406830F0100021684860FFF7E8FC48
:100D4000060020684068800608D4FFF7E1FC801B9D
:100D500040F2E9318842F4D3032000E0002070BD66
:100D600000220300DBB21B09DBB20A214B43C0B2F5
:100D700010F00F00C018C0B27047F0B4030000209C
:100D8000002513F5FA640E00F6B2032E1FD20E00F2
:100D9000F6B2172046430920B6FBF0F71000C0B2A8
:100DA000C719E719601E17EB90073F1D601E6426E8
:100DB000B0FBF6F6BE1B601E4FF4C877B0FBF7F031
:100DC00086190727B6FBF7F007FB10601CE00E0042
:100DD000F6B2172046430920B6FBF0F71000C0B268
:100DE000C719E71917EB94073F1D6420B4FBF0F611
:100DF000BE1B4FF4C870B4FBF0F08619B61E07276F
:100E0000B6FBF7F007FB1060C0B2F0BC7047000003
:100E100080B52F48016851F001010160006810F0B1
:100E20000100009000982B48016851F0805101604A
:100E3000006810F08050009000980320FFF73AFD02
:100E4000002200217FF00B00FFF73AFD0022002175
:100E50007FF00A00FFF734FD002200217FF0090037
:100E6000FFF72EFD002200217FF00400FFF728FD90
:100E7000002200217FF00300FFF722FD0022002165
:100E80007FF00100FFF71CFD002200215FF0FF3022
:100E9000FFF716FD1049086830F0E06050F0007070
:100EA000086001BD1CB5040020680C4988420ED1C1
:100EB00000F03EF90748016851F0006101600068E8
:100EC00010F000600090009801200549086013BDF3
:100ED000181002401C10024004000140002800408D
:100EE0003C0442422DE9F8430500002600242878FE
:100EF000C0076CD50027DFF80C82D8F80000C000CE
:100F00000DD4D8F8000050F08050C8F80000D8F890
:100F1000000010F080500090009801200700DFF8DA
:100F2000E891D9F80000C00513D4D9F8000050F4B6
:100F30008070C9F80000FFF7EBFB0600D9F800004D
:100F4000C00506D4FFF7E4FB801B6528F6D3032019
:100F500052E0DFF8B891D9F8000010F440700400B6
:100F6000002C22D0686810F4407084421DD0D9F85B
:100F7000000030F440700400654801210160002148
:100F80000160C9F80040E0070FD5FFF7C1FB06007C
:100F9000D9F80000800708D4FFF7BAFB801B41F2A4
:100FA00089318842F4D3032026E0D9F8001031F4C7
:100FB000407168680143C9F800103800C0B20128C8
:100FC00005D1D8F8000030F08050C8F8000028782B
:100FD000800706D54F490A6832F44042A8680243A8
:100FE0000A602878C00606D54A490A6832F48002A9
:100FF000E86802430A600020BDE8F2832DE9F0436F
:1010000085B0040001A844491022FFF7ADFB434816
:101010000088ADF800000025002600275FF00008DA
:101020005FF000092000012830D0022859D0102894
:1010300063D138480168884639490968C90124D50F
:1010400001A9C8F38342895C0F005FEAC8310ED55D
:1010500069460268C2F34042895C0D005FEAC8310C
:1010600009D53049B1FBF5F179430E0003E02E4973
:1010700001FB07F10E000068400201D5B14604E013
:1010800070000321B0FBF1F0814636E01F48006894
:10109000804640F2023010EA0800B0F5817F03D1AB
:1010A0004FF4004081461BE018F44070B0F5007F1B
:1010B00007D11E480068800703D549F640408146A5
:1010C0000EE018F44070B0F5407F07D11448006876
:1010D000800303D54FF22440814601E00020814681
:1010E0000BE0FFF7D4FA0B490968C1F38131491CC1
:1010F0004900B0FBF1F08146FFE7484605B0BDE886
:10110000F08300001C1002400070004020100240DC
:101110004004424204100240881400083A090008C2
:101120000010024000127A0000093D002410024025
:10113000012001490860704720000E4280B500F090
:10114000C1F800F005F800F094F800F053F8FEE75D
:1011500000B593B0092009905FF480300A90002117
:101160000B9101210D9101210F91022110911190FC
:101170005FF4E010129009A8FEF7B8FF002803D032
:101180008C214B4800F09CF80F2004900220059021
:10119000002006904FF48060079000200890022104
:1011A00004A8FFF783F9002803D09A21404800F0F3
:1011B00087F8012000904FF4007001906846FFF717
:1011C00091FE002803D0A121394800F079F8FFF7FB
:1011D0005BFA4FF47A71B0FBF1F0FFF786FB042065
:1011E000FFF789FB002200215FF0FF30FFF768FB6B
:1011F00013B000BD1CB52F4C2F4820605FF0FF30AE
:1012000060604FF48070A0602000FFF797FB00281B
:1012100003D0C621264800F053F800208DF80400C2
:1012200000208DF8050000208DF80600012201A99C
:101230002000FFF7F1FB002803D0D4211C4800F068
:101240003FF801208DF8000001208DF801000120F9
:101250008DF8020000208DF803000122694620006D
:10126000FFF746FC002803D0E121114800F028F8E0
:1012700013BD81B01148016851F01001016001688F
:1012800011F0100100910099016851F020010160F6
:10129000016811F0200100910099016851F00401EA
:1012A0000160006810F004000090009801B07047E1
:1012B00040130008080000200028004018100240D9
:1012C000FEE7000080B50748016851F01001016099
:1012D0000320FFF7EFFA0020FFF720FAFFF798FD51
:1012E000002002BD002002400F49086850F00100B4
:1012F00008600E4A13680E48034013600B680D48DF
:1013000003400B60086830F480200860106830F4F7
:10131000FE0010605FF41F00074908605FF0006086
:1013200006490860704700000010024004100240A7
:101330000000FFF8FFFFF6FE0810024008ED00E095
:10134000433A5C416D69745F4368617564686172BA
:10135000795C53544D33325C50726F6A65637473B9
:101360005C4941525C4941525F50726F6A656374D7
:10137000735C4D61696E5C5254435F4D585C5372AF
:10138000635C6D61696E2E630000000030B501681A
:1013900084684218416802EB5103C9070BD54C44DD
:1013A00009E012F9011B12F8015B002904F8015B46
:1013B00005D5491CF9D19A42F3D10C3030BD491EF4
:1013C000F1D5F8E710B5074979441831064C7C444B
:1013D000163404E00A68081D114488470146A142FA
:1013E000F8D110BD0800000014000000A1FFFFFFAD
:1013F00088010000180000000000002000F00DF837
:10140000002801D0FFF7DEFFAFF300800020AFF32C
:101410000080FFF793FE00F002F80120704700F013
:1014200001B800000746384600F002F8FBE700006C
:1014300080B5AFF30080024A11001820ABBEFBE775
:10144000260002007047FEE7FEE7FEE7FEE7704772
:101450007047704780B500F003F8FFF769FA01BDE7
:1014600003490A680348007882180A60704700BF81
:101470001C000020200000200203040506070809C4
:101480000A0B0C0D0E0F10100203040506070809C5
:101490000A0B0C0D0E0F10100000000000000000E1
:1014A0000102030406070809014880470148004774
:1014B000E9120008B9140008AFF30080AFF3008010
:1014C000FFF79CFF0000000001020304FFF7FEBFCE
:1014D000FFF7FEBFFFF7FEBFFFF7FEBFFFF7FEBF40
:1014E000FFF7FEBFFFF7FEBFFFF7FEBFFFF7FEBF30
:1014F000FFF7FEBFFFF7FEBFFFF7FEBFFFF7FEBF20
:10150000FFF7FEBFFFF7FEBFFFF7FEBFFFF7FEBF0F
:10151000FFF7FEBFFFF7FEBFFFF7FEBFFFF7FEBFFF
:10152000FFF7FEBFFFF7FEBFFFF7FEBFFFF7FEBFEF
:10153000FFF7FEBFFFF7FEBFFFF7FEBFFFF7FEBFDF
:10154000FFF7FEBFFFF7FEBFFFF7FEBFFFF7FEBFCF
:10155000FFF7FEBFFFF7FEBFFFF7FEBFFFF7FEBFBF
:10156000FFF7FEBFFFF7FEBFFFF7FEBFFFF7FEBFAF
:10157000FFF7FEBFFFF7FEBF0010FC0002A24A0407
:04158000E80000017E
:04000005080014B922
:00000001FF
