:020000040800F2
:1000000000100020552C0008292B00082B2B00087D
:100010002D2B00082F2B0008312B000800000000BA
:10002000000000000000000000000000332B00086A
:10003000352B000800000000372B0008392B000882
:10004000712C0008752C0008792C00087D2C000804
:10005000812C0008852C0008892C00088D2C0008B4
:10006000912C0008952C0008992C00089D2C000864
:10007000A12C0008A52C0008A92C0008AD2C000814
:10008000B12C0008B52C0008B92C0008BD2C0008C4
:10009000472B0008C12C0008C52C0008C92C0008FB
:1000A000CD2C0008D12C0008D52C0008D92C000834
:1000B000DD2C0008E12C0008E52C0008E92C0008E4
:1000C000ED2C0008F12C0008F52C0008F92C000894
:1000D000FD2C0008012D0008052D0008092D000841
:1000E0000D2D0008112D0008152D000878B585B0DC
:1000F000044600260CB9012046E004F585656878C1
:1001000018B92E70204600F09DFB0320687020680F
:1001100000F0F3FC83B000F039F80EBC206800F06A
:10012000E5FC2068002100F0EDFC002204EB461005
:100130002830067086810121761C0F2E4170C27016
:10014000026142618261F1D30020002304EB40117F
:1001500001F50A72537010708886D370401C0F2806
:10016000136153619361F1D383B000F00FF80EBCBB
:10017000206800F0C9FC002084F824000121697087
:10018000206800F091FF002006B070BD211D684678
:10019000202200F0B9BF10B500F09FF801D1022075
:1001A00010BD00F08FF8206800F07CFF206800F0A0
:1001B0009FFC8EE038B5044600F081F8000444BF8F
:1001C000204600F070F900F07AF840050CD500F0F8
:1001D00072F84FF6FF3000F06AF8204600F065FB39
:1001E0000021204600F07EF800F069F8400405D5B3
:1001F00000F061F84BF6FF7000F059F800F05FF87E
:10020000800405D500F057F84DF6FF7000F04FF868
:1002100000F055F8C00417D52168B1F840204FF61A
:10022000FB700240A1F840204FF6F770B1F8402073
:100230000240A1F84020204600F052FB00F03BF8BD
:100240004EF6FF7000F033F800F039F8000516D5CF
:10025000206800F14002118841F0080111804FF23E
:10026000FF7193880B409380158845F00405158035
:1002700000F01CFFC0045CBF204600F023FB00F030
:100280001EF8800508D500F016F84FF6FF5000F074
:100290000EF8204600F005FB00F011F8C00505D56A
:1002A00000F009F84FF6FF6000F001F831BD0240A0
:1002B000A1F8442070472168B1F8442070472068B5
:1002C00000F0F4BE012084F828040121204600F04B
:1002D000DCBB002084F8280410BD044694F82804F0
:1002E0000128704710B5FFF7F8FF01D1022010BDBB
:1002F00000F006F884F82410206800F0CDFEE8E74E
:10030000012084F82804704738B500F035F80D0650
:100310004CBF283000F50A7001F07F050570C9094F
:1003200041700261C37094F82814012901D10220A0
:1003300032BD00F01BF800F0FBFB9DE010B500F0B3
:100340001BF80A064CBF283000F50A7001F07F0246
:100350000270C909417094F82814012901D10220C2
:1003600010BD00F003F800F000FDB2E7012284F8B0
:100370002824014620687047044601F07F0004EB02
:100380004010704710B501F07F0400EB441404F5F1
:100390000A7401F07F016261A3610022E261627070
:1003A00015E001F00F0100EB4110D0F8440280B2DB
:1003B000704710B501F07F0400EB441428346261EB
:1003C000A3610022012301F07F01E26163702170CB
:1003D0002146006800F046FD002010BD38B50546F6
:1003E0000C462106204606D500F07F0205EB42139D
:1003F00003F1280103E005EB441101F50A71012224
:100400008A7004F07F040C70C009487095F82804C5
:10041000012801D1022032BD85F82824286800F087
:10042000DFFD24B9286805F22C4100F042FE0020CF
:1004300085F8280432BD38B5044608060A4606D5B4
:1004400002F07F0304EB431505F1280003E004EB01
:10045000411000F50A700023837001F07F010170E4
:10046000D209427094F82814012901D1022032BD2A
:10047000FFF77CFF00F0D9FD002084F8280432BD8E
:1004800010B5FFF72AFF01D1022010BDFFF738FF9A
:100490000A06206804D501F07F0100F045FB01E069
:1004A00000F044FB15E72DE9F84F0022ADF80020DD
:1004B000ADF8002000F50A7500F1240940F68F7AA6
:1004C00004462DE0018848F60F7211400180206833
:1004D000B0F8501099F8042001EBC20100EB410084
:1004E00000F204400068D9F81820C0F30900C9F8E8
:1004F00020000244C9F818200021204600F0CAF963
:1005000099F8002062B1D9F81C0048B999F8001098
:10051000206841F08001A0F84C10002189F80010FB
:10052000206800F144010A88ADF80020120440F16F
:100530002C81BDF8002012F00F0870D1BDF800200A
:10054000D306BFD50288ADF80020BDF800301A05EB
:1005500019D589892A7801EBC20100EB410303F226
:100560000C431B68AA88C3F30903EB6104F22C4116
:1005700000F0BCFD206801880AEA010101802046E4
:1005800000F07AF9CCE7BDF800100A04C8D501885C
:100590000AEA010101802068B0F85020297802EBB6
:1005A000C10200EB420303F20C431B68C3F30903CF
:1005B000002BEB6107D0AA88696900F097FD686994
:1005C000E969014469610021204600F05BF9206877
:1005D000B0F8501000EB410029693F2900F20C40AF
:1005E00009D34A0911F01F0F08BF521E920242F4AC
:1005F000004292B205E04A08C90748BF521C920661
:10060000120C02604BF68F7220680188114081F451
:10061000405141F4004141F08001018080E730F811
:100620002810ADF8001004EB4816BDF800100A04BD
:1006300051D530F828100AEA010120F8281006F5F3
:100640000A77206897F800C0B97A51B9B0F850100D
:1006500000F0AFF82BD0BA8879695B4600F046FD10
:1006600025E030F82C104904B0F850100DD511EBEE
:10067000CC0200EB420303F204431968C1F3090BF7
:10068000BBF1000F09D0FA8803E000F092F804D023
:100690003A895B46796900F029FD2168387800F0D5
:1006A00077F842F4004242F0C00221F82020F969B4
:1006B0005944F9617A695A447A61BB6913B139695D
:1006C0008B4504D23978204600F0DCF803E0397815
:1006D0002046FFF757FEBDF80000010651D52068FF
:1006E00030F8281048F60F72114020F8281016F83C
:1006F000283F2768B07AD90050B9B7F8500000F009
:100700004DF827D0B2887169206800F0DDFC21E047
:1007100037F823004306B7F8500004D500F03EF840
:100720000ED0F28808E0091807EB410202F20C42F1
:1007300000F039F804D032897169206800F0C4FCF7
:100740002168307800F024F842F4404242F0800200
:1007500021F8202020683178B0F8502002EBC10247
:1007600000EB420000F204400068C0F30900F061B1
:100770007269024472612046B369002B02D100F015
:1007800089F8CDE6FFF715FECAE60020BDE8F28F36
:1007900031F8202048F68F731A407047091807EB8C
:1007A000410202F204421368C3F30903002BF36110
:1007B000704711EBCC0200EB420303F20C431968C3
:1007C000C1F3090BBBF1000F7047F0B4024610688B
:1007D00095681318506803EB5004C0071DD54D44AD
:1007E0001BE013F8017B05F8017B491EF9D1A0B18C
:1007F000B60813F8011B06F00306032E08BF13F812
:10080000016B01EB06214942801C294405D011F8F7
:10081000016B05F8016B401EF9D1A3420ED013F80D
:10082000016B16F0030104BF13F8011BC91C30094A
:100830000F28DAD113F8010B0F30D6E7F0BC02F124
:100840000C00704700688B49884200D0704780B523
:100850008948026842F4000202600022006800F445
:100860000000009000210098142000F0C7FCBDE8B3
:100870000240142000F0DFBC00F22C41D0F85C04F0
:1008800000F043BD00EB4112D0F85C04D2F83C22EA
:1008900000F066BD00EB4112D0F85C04D26B00F0B2
:1008A00092BDD0F85C0400F00BBE10B504460121E7
:1008B000D4F85C0400F0F3FDD4F85C04BDE810400B
:1008C00000F0CDBD10B50446D4F85C0400F0EAFD9C
:1008D000A06920B16948016841F00601016010BDBE
:1008E000D0F85C0400F0E6BD10B5044664486149E8
:1008F000C0F85C44C4F82002082201604260022370
:10090000032100228360C1608261C2610262FFF73D
:10091000EDFB20B14FF497715CA000F048FED4F8D5
:10092000200218230022002100F042FED4F8200209
:1009300058230022802100F03BFED4F820029823A7
:100940000022812100F034FED4F82002D8230022B6
:10095000012100F02DFE002010BD10B5D0F82002BE
:10096000FFF719FC002418B102280CBF012402244F
:10097000204610BD38B51C461346D0F8200222464A
:10098000FFF7C2FC002518B102280CBF0125022583
:10099000284632BD10B5D0F82002FFF7CFFC002466
:1009A00018B102280CBF01240224204610BD10B546
:1009B000D0F82002FFF764FD002418B102280CBF14
:1009C00001240224204610BD10B5D0F82002FFF704
:1009D00005FD002418B102280CBF01240224204682
:1009E00010BD10B5D0F82002FFF725FD002418B186
:1009F00002280CBF01240224204610BDD0F820029A
:100A000001F07F02090600EB421002D590F82A009F
:100A1000704790F82A02704710B5D0F82002FFF70F
:100A200061FC002418B102280CBF012402242046D6
:100A300010BD10B5D0F82002FFF7BBFC002418B1A0
:100A400002280CBF01240224204610BD10B5D0F8A6
:100A50002002FFF797FC002418B102280CBF0124E4
:100A60000224204610BDD0F82002FFF79ABC0548AA
:100A700070470000005C00401C10024010ED00E0D8
:100A8000080100206805002070477047433A5C4128
:100A90006D69745F4368617564686172795C535411
:100AA0004D33325C50726F6A656374735C494152B6
:100AB0005C4941525F50726F6A656374735C4D614B
:100AC000696E5C5553425F4D6173735F53746F720F
:100AD0006167655F6465766963655C5372635C75C5
:100AE0007362645F636F6E662E6300000EB418E07D
:100AF000B0F8401041F43F41DDE2B0F8402044F24C
:100B0000FF21DCE2002070470EB4012120F8401FD5
:100B100000220280828000210182028842F43F424A
:100B20000280002003B0704700207047002070470B
:100B30002DE9F0430A4648F68F11D378032B16D8D7
:100B4000DFE803F0020F070A00F00AF941F4007130
:100B50000BE000F005F908E000F002F941F4C06193
:100B600003E000F0FDF841F4806120F823101178D3
:100B70000D4630F8256048F68F74264048F2800311
:100B80003143194320F825104BF68F75917A92F86E
:100B9000008000294CF2800648F6BF7748F2C00C6E
:100BA00057D1918849084FEA410951780029B0F896
:100BB000501001EBC80117D000EB410101F5806135
:100BC000C1F80090117830F821506E0606D530F843
:100BD00021502C404CEA040420F8214000F0B3F8E6
:100BE000174087F020077BE000EB410707F581679E
:100BF000C7F80090B0F85010177801EBC70100EB70
:100C0000410E11693F290EF20C4E09D34F0911F024
:100C10001F0F08BF7F1EBF0247F40047BFB205E0A9
:100C20004F08C90748BF7F1CBF063F0CCEF80070B5
:100C3000117830F821707F0405D530F821703C40E0
:100C4000344320F8214000F07EF8154085F44055EB
:100C50006DE030F82810214041F4014141F080015D
:100C600020F8281000F073F801F58069D188490850
:100C70004900C9F8001000F06AF801F5816E118989
:100C800049084900CEF80010517892F800E0002998
:100C900030F82E1026D1490405D530F82E10214009
:100CA0000E4320F82E60117830F82160760606D5C4
:100CB00030F8216026404CEA060620F821601178C1
:100CC00030F8216034404CEA040400F036F8254046
:100CD00085F440551D4320F8215000F034F81740AA
:100CE0003B4325E0490405D530F82E10214031431F
:100CF00020F82E10117830F821E05FEA4E6807D511
:100D000030F821E004EA0E0E4CEA0E0C20F821C067
:100D1000117830F821C004EA0C04344300F00DF8D7
:100D200027401F4320F8217000F00DF815402B4399
:100D300020F821300020BDE8F08320F82140117810
:100D400030F821407047117830F821207047B0F812
:100D5000501092F8008001EBC80100EB4101704790
:100D6000137830F82340214070472DE9F0410246C6
:100D700091F800E048788B7A4BF68F764CF2800839
:100D800048F2800448F6BF7548F2C00C48F68F77E9
:100D9000BBB9002832F82E0009D0430628D532F816
:100DA0002E0007404CEA070022F82E0020E0430402
:100DB00039D532F82E00074048EA070022F82E0005
:100DC00031E0002832F82E001AD1430406D532F85B
:100DD0002E00384048EA000022F82E0000F031F8DA
:100DE0004CEA070300F027F81E40264322F8206053
:100DF000087832F820100D402C4322F8204019E0EA
:100E0000430406D532F82E00384048EA000022F8A4
:100E10002E0000F016F848EA070300F00CF81D4019
:100E2000254322F82050087832F820100E4026433F
:100E300022F82060B5E022F82030087832F820301F
:100E40007047087832F820305B0606D532F820303B
:100E50003B404CEA030322F82030087832F8203077
:100E60001F4070472DE9F0410D4680466A78A86919
:100E70002969012A074648F2800640D181423ABFDB
:100E80000F46C01B0020A861A87A28B9AA8800F0E4
:100E900091F800F09AF829E02878C10038F820008D
:100EA0004206B8F8500003D500F088F82A8902E01D
:100EB00000F084F8EA8800F07DF8687848F68F71D1
:100EC00040B9287838F82020114041F4004141F021
:100ED000C00109E0012809D1287838F82020114004
:100EE00041F4404141F0800128F82010297838F879
:100EF000212048F6BF70024082F030024EE081426D
:100F00003ABF0F46C01B0020A97AA8617B080029C0
:100F10004FEA571C07F001001AD0BAB900F044F8A4
:100F200008EB41013F2F01F2044109D3624617F05B
:100F30001F0F08BF521E920242F4004292B204E018
:100F40001A4600B1521C9206120C0A606978C9B99F
:100F500000F02AF808EB41043F2F04F20C440BD3B5
:100F600017F01F0F08BFACF1010C4FEA8C2040F4C2
:100F7000004080B2206009E000B15B1C9B061B0CA6
:100F8000236003E0012901D100F01FF84BF68F70B8
:100F9000297838F82120024082F44052164328F87C
:100FA00021600020BDE8F081B8F850102A7801EBEC
:100FB000C20170476969BBB2404685E0091808EB79
:100FC000410404F2044427607047B8F850002978BF
:100FD00000EBC10008EB400404F2044427607047B2
:100FE00010B50A7848F2800352B902884BF6BF71F7
:100FF0000A4082F4805282F010021343038012E010
:10100000497830F82240002905D048F6BF710C40DD
:1010100084F0100404E04BF68F710C4084F480548B
:10102000234320F82230002010BD70B54A780C7898
:10103000002A30F8242048F2800348F68F7513D038
:10104000560608D530F82420154045F4004545F0F3
:10105000C00520F824500A7830F8224048F6BF71C5
:101060000C4084F0300412E0560408D530F82420F7
:10107000154045F4404545F0800520F824500A7895
:1010800030F822404BF68F710C4084F440542343D7
:1010900020F82230002070BD11B98021A0F84C103A
:1010A000002070470020704700207047B0F84400CF
:1010B000704700207047A0F84010002070470A4099
:1010C000A0F840200020704710B500EB42005B1CE8
:1010D00000F580605B1007E00A784C7842EA042251
:1010E000891C20F8042B5B1EF6D110BD00EB4200DA
:1010F0005B1C00F580605B1004E050F8042B21F8C5
:10110000022B5B1EF9D17047103A07D330B4B1E817
:101110003810103AA0E83810F9D230BC530724BF79
:10112000B1E80810A0E8081044BF51F8043B40F8AB
:10113000043BD20724BF31F8022B20F8022B44BF16
:101140000B7803707047121F17D35B0009D151F859
:10115000043B20F8023B1B0C121F20F8023BF6D286
:101160000BE051F8043B00F8013B1B0A20F8023B5E
:101170001B0C121F00F8013BF3D238BF121D521E88
:1011800024BF11F8013B00F8013BF8D8704730B498
:10119000002513E050F8042BD30744BFA9F1010345
:1011A0009A18091F042942F8045BFAD213468C07E7
:1011B00044BF15809B1CC90748BF1D7050F8041B15
:1011C0000029E7D130BC70470901020006D52F4A3B
:1011D00000F00F00104400F8041C70472C4B195409
:1011E00070472C4B19684FF6FF020002114000F4C3
:1011F000E0600843284908431860704738B5254B1C
:101200001C68C4F30223C3F10704052C28BF04247F
:101210001D1D072D34BF0023DB1E012505FA04F434
:10122000641E2140994005FA03F35B1E1A401143E6
:10123000BDE83440C8E7012200F01F01174BFFE76B
:101240008A40400943F82020704710B5401EB0F195
:10125000807F01D3012010BD114C60600F214FF041
:10126000FF30FFF7B1FF0021A160072020600020C0
:1012700010BD04280A4904D1086840F00400086041
:1012800070470A6822F004020A60704718ED00E017
:1012900000E400E00CED00E00000FA0500E100E0F1
:1012A00010E000E000F000B8704738B508B902203F
:1012B00032BD00F5FE74A3690BB10025A56101B133
:1012C0006161012121700270FFF70EFB002032BD29
:1012D0000246002011B1C2F8141270470220704774
:1012E00080B5FFF73AFB002002BD10B5D0F81422FC
:1012F00002241AB11268904700B90024204610BD9C
:1013000080B5D0F814225368E6E038B5044604F5F9
:101310000275284600F0F9FA04F5FA70012101601F
:10132000428B017D426011F01F0003D002280BD0D8
:1013300005D30EE02946204600F054F90EE0294678
:10134000204600F0EAF909E02946204600F000FABC
:1013500004E001F080012046FFF736FB002032BD9B
:1013600038B5044610460A0004F5FA7320D119680E
:10137000032926D104F586714A680D68AA420AD26B
:10138000AD1A0D60954238BF2A46014692B22046FA
:1013900000F00DFB15E0196A086928B1187A0328D6
:1013A00002D1096920468847204600F008FB08E082
:1013B0001A6A906928B1187A032802D192692046E6
:1013C0009047002032BD38B5044610460A0004F5A7
:1013D000FA7539D12968022930D1E269216A91422E
:1013E00007D2521AE261014692B2204600F0D7FAC3
:1013F00011E0A269B2FBF1F001FB102090B98A4222
:1014000010D3686882420DD200220021204600F0ED
:10141000C6FA002068600023002200212046FFF762
:1014200015FB0BE0296AC86828B1287A032802D185
:10143000C96820468847204600F0C8FA287B012862
:101440000BD10021297308E02A6A506928B1287A53
:10145000032802D1526920469047002032BD10B5C2
:101460000446402300220021FFF784FA4022C4F8FA
:1014700010214023002280212046FFF77BFA4020E4
:1014800004F5FE7220620121D069117028B19269C1
:1014900061685368C9B220469847002010BD0174A6
:1014A0000020704700F5FE70042201784170027040
:1014B0000020704700F5FE704178017000207047F1
:1014C00080B500F5FE710A78032A03D18969C969DC
:1014D00001B18847002002BD9847002002BD0000EE
:1014E00080B500F07BFA00F021F80F48016841F068
:1014F00010010160026802F0100200920099026877
:1015000042F020020260036803F020030093009978
:10151000026842F004020260006800F004000090DB
:10152000009800F06DFAFEE71810024000B54FF485
:101530008031002293B00A910B9211910120099001
:101540000D9002224FF4E0111092129109A800F0C0
:1015500073FA00B1FEE7022105910F204FF480617C
:1015600004900022079106920892022104A800F03C
:10157000EFFB00B1FEE710210022009103926846C4
:1015800000F0B4FC00B1FEE700F08FFC4FF47A717C
:10159000B0FBF1F0FFF759FE0420FFF76AFE0022CE
:1015A00000214FF0FF30FFF729FE13B000BDFEE72A
:1015B00010B50C0605D501F07F0100EB4110283075
:1015C00003E000EB411101F50A701AB900218172A4
:1015D000838004E0C38001211B0C81720381002001
:1015E00010BD0000F8B50D4604466878092804F5DA
:1015F000FE7646D8DFE800F0647B45744509054572
:101600005323204600F008F980E0A888002804BF92
:10161000E888002835D13078AF78032807F07F07B5
:101620002FD0B77039462046FFF7F6F900F08DF855
:10163000002F07BF012131700220307066E0344F67
:1016400068883870397802291BDA3378022B08460B
:101650001AD0032B15D131B90220307061602046B9
:10166000FFF74EFE50E0616888424DD0C9B2204677
:10167000FFF746FE397861602046FFF736FE022804
:1016800042D100F047F841E000293DD060600320DE
:1016900030702046FFF729FE0228F2D034E0E888B7
:1016A0000128EED13178022904D00329E9D10122A1
:1016B000211D11E00020A060012204F108010BE0CF
:1016C0003078801E0128DCD8B068012100B10321E8
:1016D000E160022204F10C01204600F058F915E007
:1016E0006888012812D10121B160294608E03078CC
:1016F000801E0128C5D86A88012A07D10020B06061
:101700002046B2699368984700F01FF80020F2BDA8
:10171000FC0B0020294620460BE138B5044604F5B1
:10172000FE720D46107803280BD12879022808DABA
:101730009269936820469847E88820B900F005F838
:1017400001E0FFF7E8FF002032BD204600F037B986
:1017500070B50D4604462878297900F060002028ED
:1017600004F5FE7602D100F051F84DE06A78002AC7
:1017700001F07F0026D0012A0FD0032A44D130780F
:10178000022810D003283DD16888B0B900291EBFB7
:1017900080292046FFF718F90FE03278022A02D09C
:1017A000032A04D02EE000292ED0802911E06A8877
:1017B00052BB20B12046FFF714F900F027F8FFF7DD
:1017C000C4FF21E03278022A02D0032A06D019E0B1
:1017D000002819D02046FFF7F7F815E004EB0010B9
:1017E0000B064CBF00F1140500F582752046FFF78B
:1017F00005F900B10120286002222946204600F0A8
:10180000C6F801E0FFF786FF002070BDB26993685B
:10181000294620461847000038B50D46044668881A
:10182000030A012B04F5047208D0022B21D0032BEC
:101830002CD0062B56D0072B5BD063E01268207C9F
:10184000136869469847BDF8001000291CBFE98855
:1018500000290DD0BDF80010EA88914288BF1146DA
:10186000ADF800100146BDF80020204600F08FF8CA
:1018700031BD207C51680028684604D1896A8847B8
:1018800002224270DFE7C96A8847F9E7C0B205283B
:1018900038D8DFE800F003090F151B211268207CFF
:1018A000536869469847CEE71268207C936869467A
:1018B0009847C8E71268207CD36869469847C2E712
:1018C0001268207C136969469847BCE71268207C3F
:1018D000536969469847B6E71268207C9369694660
:1018E0009847B0E7207C68B951684A6B68469047D2
:1018F000A9E7207C30B951680A6B684690470721F8
:101900004170A0E7FFF707FF31BD0A7802704B78FE
:1019100043708A78CB7802EB032242804B790A79B4
:1019200002EB032282808A79C97902EB0122C2800C
:10193000704710B504468021FFF746F82046BDE801
:1019400010400021FFF740B800280B4600D1704737
:1019500070B50146002400E0641C11F8015B002D05
:10196000FAD12406E40DA41C1480118819700322F6
:101970005A70022207E010F8011BD4B2521C19550C
:10198000D6B2521C9D5501780029F4D170BD80B5A6
:1019900013460222C0F8F4218361C36101E080B5DF
:1019A00013460A460021FFF744F8002002BD80B527
:1019B00013460A460021FFF749F8002002BD80B512
:1019C0000421C0F8F41100230022EBE780B50521C3
:1019D000C0F8F41100230022ECE7000080B50748AE
:1019E000016841F0100101600320FFF7FAFB0020BD
:1019F00000F0F0FA00F00EFB002002BD00200240D3
:101A000010B5094C094900222046FFF74EFC084951
:101A10002046FFF75DFC0749204600F013FC2046F6
:101A2000BDE81040FFF75CBCD80700201000002084
:101A300044000020E80000202DE9F8430646DFF8C6
:101A400070543078C10748D5686800F00C0004284D
:101A500007D0686800F00C0008280BD16868C10343
:101A600008D52868810338D57068002840F0BE800A
:101A7000012067E17068B0F5803F04D1286840F428
:101A80008030286014E008B928680AE0B0F5A02F7B
:101A9000286806D140F480202860296841F480310C
:101AA00005E020F480302860296821F48021296035
:101AB000706868B100F0CCFB04462868810300F12F
:101AC000958000F0C5FB001B6528F6D3032039E1A3
:101AD00000F0BEFB04462868810340F1878000F0D7
:101AE000B7FB001B6528F6D3F0E700F0B1FB001B45
:101AF000022840F2AA80E9E7306970B1012139601B
:101B000000F0A6FB04462868810700F1DC8000F0A5
:101B10009FFB001B0228F6D9D8E7386000F098FB3D
:101B200004462968880765D500F092FB001B02284F
:101B3000F7D9CBE7086000F08BFB0446686A8107A1
:101B400077D500F085FB001B0228F7D9BEE708B95E
:101B5000286A09E00528286A06D140F004002862B6
:101B6000286A40F0010005E0400840002862286A29
:101B700020F00400286241F28938F06868B100F072
:101B800067FB8146286A810700F1AA8000F060FBAC
:101B9000A0EB09004045F5D398E700F059FB8146DA
:101BA000286A810740F19C8000F052FBA0EB0900FD
:101BB0004045F5D38AE700F04BFB001B022840F2BA
:101BC000A28083E700F044FB001B022840F2B580AE
:101BD0007CE700F0B9F804462868810140F1B18043
:101BE00000F036FB001B0228F6D96FE73078DFF8EB
:101BF000CC7281071BD5686810F00C0F09D068689B
:101C000000F00C0008287FF477AF6868C1033FF547
:101C100073AF2868810703D5306901287FF428AFA6
:101C20002968706921F0F80141EAC0012960317822
:101C300008071DD5B069DFF8881200283FF47AAF95
:101C400001220A6000F004FB0446686A81077FF500
:101C50004CAFDFF860020268D2084FF47A71B2FB31
:101C6000F1F1009100BF0098411E00280091F9D1C8
:101C70003078410739D5E8690024C10009D4E86902
:101C800040F08050E8610124E86900F08050009045
:101C90000098DFF83082D8F80000C1051BD4D8F8CE
:101CA000000040F48070C8F8000000F0D1FA8146CE
:101CB000D8F80000C1050ED400F0CAFAA0EB090064
:101CC0006528F5D302E72868716920F0F80040EA3A
:101CD000C1002860ABE7F06801287FF438AF3FE728
:101CE0001CB1E86920F08050E861F06948B3696888
:101CF00001F00C0108293FF4BBAE02287FF469AF64
:101D000000F022F80446286881013FF554AF306A9C
:101D1000B0F5803F05D16968B06821F40031014316
:101D200069606A68306A716A22F4741202430A4375
:101D30006A60012000F009F80446286881017FF5F7
:101D400041AF0020BDE8F2830020386600F080BA81
:101D50002DE9F8435C4F05463868894600F00700D6
:101D6000484502D200F079F86BD12878504C8107B1
:101D700005D56268A86822F0F00202436260297803
:101D8000C80756D56868012802D121688A0303E094
:101D90000228216802D18A0102D452E08A0750D574
:101DA0006168890840EA8100606041F2893800F08A
:101DB0004FFA0646686801280BD1606800F00C00F5
:101DC000042836D000F044FA801B4045F5D30320A8
:101DD0002DE0022837D1606800F00C00082828D0D8
:101DE00000F036FA801B4045F5D3F0E7287841072C
:101DF00005D56268E86822F4E062024362602978EF
:101E0000080706D56168286921F4605141EAC001DC
:101E1000616000F02DF862682C49264BC2F3031272
:101E2000895CC8401860002000F0D4F80020BDE8AC
:101E3000F283386800F007008145D7D200F00DF832
:101E4000D4D00120F3E7606810F00C0FF1D000F05F
:101E5000FFF9801B4045F6D3B9E73968C90849EA5C
:101E6000C1013960386800F007004845704700003C
:101E7000174911480A6802F00C03082B00D070477C
:101E800010B500BF14A4C2F38343D203E35C08D5AA
:101E90000968584314A3C1F340415A5CB0FBF2F007
:101EA00010BD18460B49484310BD024800687047F2
:101EB000001002400C00002000127A000000424294
:101EC000800442420070004000200240182B0008AD
:101ED0000410024000093D0002030405060708093A
:101EE0000A0B0C0D0E0F1010010200002DE9FC4131
:101EF0000646354D3078C10750D5A8690024C10089
:101F000009D4A86940F08050A8610124A86900F0B4
:101F10008050009000982D4F3868C10519D438685A
:101F200040F48070386000F093F980463868C1054D
:101F30000FD400F08DF9A0EB08006528F6D303203C
:101F40003FE000F085F9C01B41F28931884217D388
:101F5000F5E7E86910F440701EBF716801F4407144
:101F6000884210D01A49E86901220A60002320F44F
:101F700040700B60E861C00705D500F069F90746BD
:101F8000E8698107DDD5EA69706822F4407202438E
:101F9000EA611CB1A86920F08050A86130788107FF
:101FA00005D52A68B06822F4404202432A6031789D
:101FB000C80605D52968F06821F48001014329602D
:101FC0000020BDE8F68100000410024000700040CF
:101FD0004004424238B50D4D0D4B2A7804464FF46B
:101FE0007A711868B1FBF2F2B0FBF2F0FFF72DF94D
:101FF00050B9102C08D2002221464FF0FF30FFF7D5
:10200000FDF8AC60002032BD012032BD0000002090
:102010000C00002080B52448016841F001010160F6
:10202000026802F0010200920099426842F0805278
:102030004260406800F08050009000980320FFF755
:10204000D0F8002200216FF00B00FFF7D7F8002234
:1020500000216FF00A00FFF7D1F8002200216FF095
:102060000900FFF7CBF8002200216FF00400FFF712
:10207000C5F8002200216FF00300FFF7BFF800222F
:1020800000216FF00100FFF7B9F8002200214FF0A6
:10209000FF30FFF7B3F80548016821F0E06141F037
:1020A0000071016001BD00BF181002400400014032
:1020B00010B50446207C30B94FF4007300F01AF8D4
:1020C0004FF4007303E0402300F014F84023022291
:1020D00081212046FEF74EFC4FF41B70FEF7C7FC33
:1020E000C4F8180208B9012010BD204600F0B6F867
:1020F000002010BD022201212046FEF73BBC10B596
:1021000004460121FEF746FC81212046FEF742FCF1
:10211000204600F0D2F8D4F8180220B1FEF7B4FC43
:102120000020C4F81802002010BD70B504460D460A
:1021300004F506712A780E6812F0600028D0202875
:102140005BD16B78FE2B02D0FF2B0FD01AE0688892
:10215000002804BFE888012814D1100612D5496868
:10216000886980473060012231461DE06888002878
:1021700004BFE888002805D1100603D4204600F0EB
:1021800090F83AE029462046FFF7D3FB022070BDC5
:10219000687801280CD00A2804D00B2804BFA8783E
:1021A00070602AE00122311D2046FFF7F0FB24E099
:1021B000A988C9B22046FEF7FAFBA988C9B2204611
:1021C000FEF7E8FB2979207C0A0607D510B94FF401
:1021D000007300E040230222812106E000280CBFAA
:1021E0004FF400734023022201212046FEF7C2FB78
:1021F000A988C9B2204600F02AF9002070BD80B538
:1022000000F060F8002002BD80B500F072F80020F8
:1022100002BD202101800748704720210180064827
:10222000704720210180054870470A210180044839
:10223000704700007C0000209C000020BC000020B3
:10224000DC00002009B1C0F81C120020704700001B
:1022500001484068704700BF0000002038B50446C0
:1022600004F5067100200D682872002205F517702C
:102270006A7242700270002049680A689047012122
:102280002046FEF794FB81212046FEF790FB05F5E2
:102290000372204601B0BDE830401F230121FEF744
:1022A000D5BB10B5D0F8181200220A7201244C7266
:1022B00001F50372BDE81040EFE7D0F818020021E5
:1022C0000172704710B50446D4F81802017A891ECD
:1022D00003D0491E012906D910BD00F021F80028BD
:1022E00006D5012100E000212046BDE810407AE03B
:1022F00010BD10B50446D4F81802017A11B10129B5
:1023000004D010BD2046BDE8104010E000F008F8F1
:10231000002804D52046BDE81040012163E010BD2F
:1023200090F8191200F21B22204600F0A5B8F8B56B
:1023300004460121D4F8185205F503767068B26896
:102340007062B2622046FEF78EFB1F2802BF306823
:102350003049884206D1717B022903DAB07B08B18B
:10236000112808DB717B20230522204600F0D3F9D9
:10237000022068720BE005F21B22204600F07CF878
:102380000028287A07D5052808BF012126D0204635
:10239000BDE8F24042E002281CBF0128032821D0FA
:1023A0006B89D3B1D4F8181201F505721068176A59
:1023B000984238BF034698B23F1A1762002281F84C
:1023C0003822042005F10C02087201B02046BDE855
:1023D000F0409BB28121FEF72CBB00212046BDE8D6
:1023E000F44000E0F1BD70B504460B48D4F8185233
:1023F00005F50B720026106011732E720D238121DA
:102400002046FEF716FB05F503722046BDE8704036
:1024100043E70000555342435553425338B50446F1
:10242000D4F8185205F50570017939B9006828B15A
:10243000687A18B901212046FEF7C6FA81212046A4
:10244000FEF7C2FA687A022800D120E731BD10B544
:10245000D0F81842627A022A05D18121FEF7B4FA37
:102460000022627210BD090605D5012A03D0BDE81D
:1024700010400121B7E710BDF8B5054610780C46AD
:1024800005F506734FF0FF36C8B1032833D0122884
:1024900035D01A2855D01B2818BF1E284DD0232808
:1024A0005FD0252861D0282800F094802A2800F0E9
:1024B00095802F2800F096805A2845D0ACE0196806
:1024C00001F50577386818B17979202305225AE09B
:1024D00001F1080759688A682046904740B13A23BD
:1024E00002222146284600F016F90520387098E0AF
:1024F000002179808EE02846BDE8F840D7E050788A
:102500001968C50702D5484B07200BE05B681279B4
:10251000DD69242044432B191879401D80B2904274
:10252000A8BF1046488101F10C0403E0401E80B2B0
:102530001A5C22540028F9D1F2BD196800204881A4
:10254000F2BD1968394A01E01968394A0820488102
:1025500001F10C04401E80B20028135C2354F9D111
:10256000F2BD2846BDE8F84064E01F685B68D3F818
:1025700004C007F25E2207F518712046E04730B12B
:102580003A2302222146284600F0C5F849E0D7F850
:10259000601207F10A00491E090E81700023D7F866
:1025A0006012491E090CC1700026D7F86012491E3E
:1025B000090A0171D7F8601283714A1E4271C37112
:1025C000B7F85E22120A02720822B7F85E12417250
:1025D000028026E02846BDE8F840B8E02846BDE87D
:1025E000F84038E150781F68810706D5242305227A
:1025F0002146284600F08FF813E007F5197043686C
:1026000002689BB22146284600F089F9002808D4C8
:1026100000207881002604E020230522284600F0CF
:102620007AF83046F2BD00003C2C0008442C00082B
:102630004C2C0008FEB5044604F506730D461E68D2
:1026400006F10C0700200021002287E807005B68E4
:102650005F686A4601A92846B84740B13A2302227A
:102660002946204600F057F84FF0FF30FEBD082005
:10267000F07302220199491E090E31740198401E1F
:10268000000C70740198401E000AB07401983275F5
:10269000411EF17400207075BDF80010090AB17573
:1026A0000C21BDF80000F07571810020FEBD38B529
:1026B000D0F818521446122105F10C0000F08AF9E6
:1026C0000C20E874702205F517702A73017842789F
:1026D000914218D005EBC10191F83C22AA73017810
:1026E00005EBC10393F841222A76017805EBC1037B
:1026F00093F840226A760178491C0170C9B2042916
:1027000004BF002101701220688120791328B8BF0E
:102710006881002032BD10B5D0F8180290F85D1223
:1027200000EBC1041B0284F83C2290F85D1200EB20
:10273000C102C2F8403290F85D12491C80F85D1267
:10274000C9B2042904BF002180F85D1210BD2DE933
:10275000F047804608F506798A46D9F80070387A3D
:102760000028144638D107F50575287901062FD5BC
:10277000D9F8042091685046884710B13A230222C4
:102780004CE0E178A0782279090441EA006160799F
:1027900007F5197641EA022101433160207AE17997
:1027A00040EA01207060034632685146404600F01E
:1027B000B6F8002836D4022038723168B7F85E02C5
:1027C000414331607268504370602968814203D090
:1027D00069792023052222E04FF400707881D9F82E
:1027E0000070D9F80460D6F810C007F50D7007F531
:1027F0000D74456B608D216BB5F5007F88BF4FF47C
:102800000075B5FBF0F3B1FBF0F29BB207F10C01E0
:102810005046E047002808D511230422514640467F
:10282000FFF779FF4FF0FF3013E0ABB207F10C0276
:1028300081214046FEF7FDF8206B28182063606B6D
:10284000401B606321684D1B256008B90320387266
:102850000020BDE8F0872DE9F843804608F50675AD
:1028600089462E68307A0028174652D106F505743D
:102870002079010634D46A6891684846884708B1CF
:102880003A2305E06968CA684846904718B127238B
:102890000222494627E0F978B8783A79090441EAF2
:1028A0000061787906F5197541EA02210143296032
:1028B000387AF97940EA0120686003462A68494677
:1028C000404600F02CF8002810D4B6F85E022968C3
:1028D000414329606B6843436B602068984208D08D
:1028E0006179202305224046FFF715FF4FF0FF30A6
:1028F00013E001203072B3F5007F28BF4FF400735E
:102900009BB206F10C0201214046FEF79FF8002021
:1029100003E04046BDE8F44312E0BDE8F28338B579
:10292000D0F81842D4F860529A18954206D2212362
:102930000522FFF7F0FE4FF0FF3032BD002032BD20
:102940002DE9F843044604F5067C0D46DCF80080CA
:10295000DCF804C0DCF8149008F50D7008F50D776C
:10296000466B788D3A6BB6F5007F88BF4FF40076E2
:10297000B6FBF0F3B2FBF0F29BB208F10C01284673
:10298000C847002808D50323042229462046FFF71C
:10299000C2FE4FF0FF301BE0386B7B6B30183863A2
:1029A0009B1B38687B63861B3E6023B90021204651
:1029B000FFF719FD0BE0B3F5007F28BF4FF400735C
:1029C0009BB208F10C0201212046FEF73FF80020DF
:1029D000BDE8F283002200F001B8000000B500BF9E
:1029E000130096469446103928BFA0E80C50FAD838
:1029F0005FEA417C28BF0CC048BF40F8042BC907E0
:102A000028BF20F8022B48BF00F8012B00BD0000B2
:102A1000122008800F487047042008800E48704735
:102A20002DE9104000F012F813A004E02DE9104049
:102A300000F00CF815A02146FEF786FF204610BDD9
:102A40002DE9104000F002F815A0F4E70A46034C07
:102A5000704700002C00002040000020FC090020EE
:102A60002DE91040FFF7F2FF11A0E4E72DE9104037
:102A7000FFF7ECFF11A0DEE753544D3332204D61D8
:102A800073732053746F72616765000053544D690E
:102A900063726F656C656374726F6E696373000057
:102AA00030303030303030303030314100000000D4
:102AB0004D534320436F6E66696700004D534320BA
:102AC000496E7465726661636500000010B50E4A58
:102AD0000E49106840F00100106053680C480B402C
:102AE0005360146804401460116821F4802111605F
:102AF0004FF41F01506820F4FE00506091604FF0C9
:102B00000060044A106010BD001002400000FFF891
:102B1000FFFFF6FE08ED00E00000000000000000EE
:102B200001020304060708097047FEE7FEE7FEE717
:102B3000FEE770477047704780B500F009F8BDE8C0
:102B40000140FEF7AFBB0148FDF734BB0801002090
:102B500002494A68087882184A60704700000020DD
:102B6000002070474FF4803008604FF400711180EE
:102B700000207047002070470020704700207047F9
:102B8000002070470020704710B50749794418317C
:102B9000064C7C44163404E00A68081D114488473A
:102BA0000146A142F8D110BD2C00000048000000F1
:102BB000008002021F00000053544D2020202020DE
:102BC00050726F6475637420202020202020202004
:102BD000302E3031BBE5FFFFF80A0000080100206D
:102BE00000000000E7DBFFFF30010000560100009D
:102BF0000000002000F00DF8002801D0FFF7C4FF0E
:102C0000AFF300800020AFF30080FEF769FC00F016
:102C100002F80120704700F001B80000074638466E
:102C200000F002F8FBE7000080B5AFF30080024A35
:102C300011001820ABBEFBE72600020000000003D5
:102C4000008083000000000000000000000600007B
:102C5000000000000148804701480047CD2A0008D5
:102C6000652C0008AFF30080AFF30080FFF7C2FFD0
:102C7000FFF7FEBFFFF7FEBFFFF7FEBFFFF7FEBF88
:102C8000FFF7FEBFFFF7FEBFFFF7FEBFFFF7FEBF78
:102C9000FFF7FEBFFFF7FEBFFFF7FEBFFFF7FEBF68
:102CA000FFF7FEBFFFF7FEBFFFF7FEBFFFF7FEBF58
:102CB000FFF7FEBFFFF7FEBFFFF7FEBFFFF7FEBF48
:102CC000FFF7FEBFFFF7FEBFFFF7FEBFFFF7FEBF38
:102CD000FFF7FEBFFFF7FEBFFFF7FEBFFFF7FEBF28
:102CE000FFF7FEBFFFF7FEBFFFF7FEBFFFF7FEBF18
:102CF000FFF7FEBFFFF7FEBFFFF7FEBFFFF7FEBF08
:102D0000FFF7FEBFFFF7FEBFFFF7FEBFFFF7FEBFF7
:102D1000FFF7FEBFFFF7FEBF4301000122100810BE
:102D200006A24A04112A00081904122D04122104D3
:102D3000124104126104126D0410021201000227F4
:102D400010084083042A5700020102033D100704C3
:102D5000030904B1200008FF0450032B21000800E0
:102D60000112FF0C830922102101121310121B04FF
:102D7000122304122B04101409022000010104C0C4
:102D8000320904000002080650050705810264208C
:102D90000107050107F10520334000201107F30D5D
:102DA000090720430A06B021E41003612B000865DF
:102DB00004127504127904127D0412810412850430
:032DC00012B0044A
:0400000508002C655E
:00000001FF
