:020000040800F2
:1000000058040020451B0008511A0008531A000824
:10001000551A0008571A0008591A00080000000075
:100020000000000000000000000000005B1A000853
:100030005D1A0008000000005F1A0008611A00083D
:10004000691B00086D1B0008711B00086D1A000871
:10005000751B0008791B00087D1B0008811B000828
:10006000851B0008891B00088D1B0008911B0008D8
:10007000951B0008991B00089D1B0008A11B000888
:10008000A51B0008A91B0008AD1B0008B11B000838
:10009000B51B0008B91B0008BD1B0008C11B0008E8
:1000A000C51B0008C91B0008CD1B0008D11B000898
:1000B000D51B0008D91B0008DD1B0008E11B000848
:1000C000E51B0008E91B0008ED1B0008F11B0008F8
:1000D000F51B0008F91B0008FD1B0008011C0008A7
:1000E000051C0008091C00080D1C00082DE9F84338
:1000F000040000252078C0076BD5DFF8D40501681F
:1001000011F00C01042907D0016811F00C01082935
:100110000CD10068C00309D5DFF8B0050068800382
:1001200057D56068002854D10120BDE16068B0F562
:10013000803F06D1DFF89405016851F480310160F9
:1001400026E0606800280AD1DFF88005016831F4F4
:1001500080310160016831F48021016018E060683D
:10016000B0F5A02F0AD1DFF86405016851F48021B1
:100170000160016851F48031016009E0DFF84C054D
:10018000016831F480310160016831F4802101603F
:10019000606800280ED000F0BBFA0500DFF82C05DF
:1001A0000068800315D400F0B3FA401B6528F5D32E
:1001B000032079E100F0ACFA0500DFF810050068D3
:1001C000800306D500F0A4FA401B6528F5D3032070
:1001D0006AE12078800750D5DFF8F404016811F057
:1001E0000C0F07D0016811F00C01082914D1006828
:1001F000C00311D4DFF8D4040168890704D521694C
:10020000012901D001204FE1016831F0F801626954
:1002100051EAC201016030E0206900281AD00120B3
:10022000DFF8BC14086000F073FA0500DFF89C04E6
:100230000168890706D400F06BFA401B0328F5D348
:10024000032031E1016831F0F801626951EAC2012D
:10025000016012E00020DFF88814086000F058FA0E
:100260000500DFF868040068800706D500F050FA42
:10027000401B0328F5D3032016E1207800072CD576
:10028000A069002816D00120DFF85814086000F09B
:100290003FFA0500DFF844040068800706D400F048
:1002A00037FA401B0328F5D30320FDE0012000F0BE
:1002B000F9F912E00020DFF82C14086000F028FAA9
:1002C0000500DFF818040068800706D500F020FA62
:1002D000401B0328F5D30320E6E02078400740F1D7
:1002E00088800026DFF800743868C0000AD43868B7
:1002F00050F080503860386810F0805000900098BE
:1003000001200600DFF8E483D8F80000C00513D40C
:10031000D8F8000050F48070C8F8000000F0F8F938
:100320000500D8F80000C00506D400F0F1F9401B24
:100330006528F6D30320B7E0E068012806D1DFF88E
:10034000B003016851F00101016025E0E068002878
:100350000AD1DFF89C03016849084900016001687F
:1003600031F00401016017E0E06805280AD1DFF8E8
:100370008003016851F004010160016851F001013E
:10038000016009E0DFF8680301684908490001607D
:10039000016831F004010160E068002810D000F02D
:1003A000B7F90500DFF848030068800719D400F0AA
:1003B000AFF9401B41F289318842F3D3032073E047
:1003C00000F0A6F90500DFF828030068800708D5CB
:1003D00000F09EF9401B41F289318842F3D303209B
:1003E00062E03000C0B2012803D1386830F080509C
:1003F0003860E069002856D0DFF8D472386810F011
:100400000C0008284DD0E069022837D1DFF8E492CB
:100410000020C9F8000000F07BF90600DFF8AC828C
:10042000D8F80000800106D500F072F9801B03287F
:10043000F4D3032038E0206AB0F5803F05D1396855
:1004400031F40031A06801433960396831F4741126
:10045000206A0143606A014339600120C9F8000045
:1004600000F056F90500D8F8000080011BD400F018
:100470004FF9401B0328F6D3032015E00020DFF8D6
:100480007412086000F044F90500DFF840020068CB
:10049000800108D500F03CF9401B0328F5D3032068
:1004A00002E0012000E00020BDE8F2832DE9F041E8
:1004B00004000D000026DFF84072386810F00700D5
:1004C000A8420BD23868C008C0002843386038689A
:1004D00010F00700A84201D001209BE0207880079F
:1004E00007D5DFF8EC110A6832F0F002A068024389
:1004F0000A602078C00758D56068012806D1DFF867
:10050000CC010068800311D4012083E060680228D8
:1005100006D1DFF8B8010068800107D4012079E036
:100520006A480068800701D4012073E0DFF8A081E9
:10053000D8F800108908890060680143C8F80010E5
:1005400000F0E6F80600606801280ED1D8F8000037
:1005500010F00C00042828D000F0DAF8801B41F2DB
:1005600089318842F2D3032054E0606802280ED11A
:10057000D8F8000010F00C00082816D000F0C8F8D9
:10058000801B41F289318842F2D3032042E0D8F83F
:10059000000010F00C0F08D000F0BAF8801B41F2F8
:1005A00089318842F3D3032034E0386810F0070023
:1005B00085420BD23868C008C000284338603868CC
:1005C00010F00700A84201D0012023E02078400766
:1005D00006D53F490A6832F4E062E06802430A60E7
:1005E0002078000707D53A48016831F46051226944
:1005F00051EAC201016000F00FF84049344A126824
:10060000C2F30312895CC84033490860002000F03F
:1006100085F80020BDE8F081F0B585B001A8384923
:10062000102200F0A1F837480088ADF80000002043
:100630000021002200230025254E346814F00C0709
:10064000042F02D0082F02D01BE022481AE001A894
:10065000C4F38347C05D0300E0030CD568463668E9
:10066000C6F34046805D01001A4800FB03F0B0FB72
:10067000F1F0020003E0244800FB03F00200100048
:1006800000E0144805B0F0BD13480068704780B51D
:10069000FFF7FAFF1D490E4A1268C2F3C222895CB5
:1006A000C84002BD81B00C490968C9084FF47A728C
:1006B000B1FBF2F101FB00F1009100BF00994A1E6D
:1006C00000920029F9D101B07047000000100240EB
:1006D0000410024000127A0004000020241002409E
:1006E00000004242800442421C1002400070004060
:1006F000201002406000424200200240341B0008EB
:10070000141B0008EE07000800093D00601B0008EC
:1007100001480068704700BF4C00002010B504007D
:100720004FF47A700D490978B0FBF1F00C49096873
:10073000B1FBF0F000F0EBF8002801D001200CE054
:10074000102C09D2002221005FF0FF3000F0C3F826
:1007500004480460002000E0012010BD500000208B
:100760000400002000000020103A07D330B4B1E8A4
:100770003810103AA0E83810F9D230BC530724BF23
:10078000B1E80810A0E8081044BF51F8043B40F855
:10079000043BD20724BF31F8022B20F8022B44BFC0
:1007A0000B7803707047121F17D35B0009D151F803
:1007B000043B20F8023B1B0C121F20F8023BF6D230
:1007C0000BE051F8043B00F8013B1B0A20F8023B08
:1007D0001B0C121F00F8013BF3D238BF121D521E32
:1007E00024BF11F8013B00F8013BF8D87047010223
:1007F00010B410F00703504C22684FF6FF010A4076
:100800004E4951EA03210A43226010BC70474A480E
:100810000068C0F302207047012210F01F018A40D7
:10082000474903005BB25B0941F82320704710B4CD
:10083000020052B2002A09D50A01424B040064B2F8
:1008400014F00F04234403F8042C04E00A013E4B87
:10085000040064B21A5510BC704770B4030013F062
:100860000704D4F10700052801D3042001E0D4F1E6
:100870000700251D072D01D2002500E0E51E0126F9
:1008800016FA00F0401E0140A94016FA05F56D1E4B
:100890002A401143080070BC704710B50400601E68
:1008A000B0F1807F01D301200EE0601E274908606F
:1008B0000F215FF0FF30FFF7BAFF002024490860E6
:1008C000072024490860002010BD10B50400200056
:1008D000FFF78EFF10BD2DE9F04104000D0016005A
:1008E0000027FFF794FF8046320029004046FFF7BB
:1008F000B4FF0100200040B2FFF799FFBDE8F0818E
:1009000010B50400200040B2FFF786FF10BD10B5FF
:1009100004002000FFF7C1FF10BD042805D10D49D8
:100920000A6852F004020A6004E00A490A6832F0D8
:1009300004020A60704700000CED00E00000FA05B8
:1009400000E100E018ED00E000E400E014E000E069
:1009500018E000E010E000E080B500F001F801BD13
:100960007047010270B504000026002C01D101205F
:1009700065E0607C002804D100202074200000F095
:10098000C0FA02206074200000F03EF9002803D075
:1009900004206074012052E0200000F0BFF900281C
:1009A00003D004206074012049E020684068C0083A
:1009B000C00021684860A068002805D0DFF83C022C
:1009C0000168490849000160DFF834120A6832F40E
:1009D0006072A06802430A60606810F1010F01D0E4
:1009E00065680AE0012000F045FB0500002D03D1F9
:1009F00004206074012022E06D1E206880680009D8
:100A0000000150EA1540216888602068C168090C1F
:100A10000904A8B201432068C160200000F099F9E0
:100A2000002803D004206074012008E00020E07357
:100A3000012060730120A07301206074002070BD4C
:100A40002DE9F84304000D00160000275FF00008B0
:100A5000002C01D0002D01D101205BE0207C012879
:100A600001D1022056E00120207402206074002E83
:100A70000CD195F800904FF461616A783C204243B4
:100A800001FB0929A87810EB090914E0287800F087
:100A90007BF98146687800F077F95FFA89F94FF4BD
:100AA0006162C0B23C21484302FB0909A87800F00A
:100AB0006BF910EB09094946200000F0E7F800281F
:100AC00005D00420607400202074012022E02068FA
:100AD000406830F0050021684860200000F0F3F81D
:100AE000070017F1010F10D04F450ED2DFF81401A7
:100AF000C7193900200000F0F4F8002805D00420C0
:100B0000607400202074012004E001206074002043
:100B100020740020BDE8F2832DE9F84F04000D0099
:100B200016005FF0000A00275FF0000B002C01D0D8
:100B3000002D01D101205FE0207C012801D102209D
:100B40005AE00120207402206074002E06D1E8785B
:100B5000E07368786073A878A0730BE0E87800F021
:100B600013F9E073687800F00FF96073A87800F06B
:100B70000BF9A073A27B617BE07B00F012F920737C
:100B8000207B2870200000F05EF880464FF4616002
:100B9000B8FBF0F9B9F1190F29D3DFF868A01820D4
:100BA000B9FBF0F00AFB10884146200000F06EF817
:100BB000002805D0042060740020207401201BE070
:100BC000200000F080F8070017F1010F0FD0474513
:100BD0000DD21AEB07073900200000F082F8002838
:100BE00005D00420607400202074012004E001205E
:100BF0006074002020740020BDE8F28F306C00404B
:100C00002C6C00408051010070B504000025002CC0
:100C100001D1012016E02068406830F0080021680A
:100C20004860FFF775FD060020684068000708D49B
:100C3000FFF76EFD801B40F2E9318842F4D30320B8
:100C400000E0002070BDF0B5010000200026002764
:100C500000220B689B690C68E4690D68AD699C46CD
:100C6000AE461FFA8CFC1FFA8EFEF44507D02E000C
:100C7000B6B20868C06980B250EA064005E01E00BE
:100C8000B6B2200080B250EA0640F0BD70B5040054
:100C90000D000026200000F041F8002802D00120BD
:100CA00006000DE02800000C21688861A8B22168C8
:100CB000C861200000F04DF8002801D00120060096
:100CC0003000C0B270BD10B40100002200240868DA
:100CD000036A0868406A9BB280B250EA034010BCC5
:100CE000704770B504000D000026200000F016F8D3
:100CF000002802D0012006000DE02800000C216829
:100D00000862A8B221684862200000F022F800289A
:100D100001D0012006003000C0B270BD70B50400E3
:100D20000026FFF7F5FC050020684068800608D41F
:100D3000FFF7EEFC401B40F2E9318842F4D3032078
:100D400006E02068406850F01000216848600020EC
:100D500070BD70B5040000252068406830F01000B8
:100D600021684860FFF7D4FC0600206840688006D0
:100D700008D4FFF7CDFC801B40F2E9318842F4D360
:100D8000032000E0002070BD00220300DBB21B093D
:100D9000DBB20A214B43C0B210F00F00C018C0B242
:100DA0007047F0B403000020002513F5FA640E002C
:100DB000F6B2032E1FD20E00F6B2172046430920CA
:100DC000B6FBF0F71000C0B2C719E719601E17EBA9
:100DD00090073F1D601E6426B0FBF6F6BE1B601E2A
:100DE0004FF4C877B0FBF7F086190727B6FBF7F08A
:100DF00007FB10601CE00E00F6B2172046430920E6
:100E0000B6FBF0F71000C0B2C719E71917EB94074B
:100E10003F1D6420B4FBF0F6BE1B4FF4C870B4FB5A
:100E2000F0F08619B61E0727B6FBF7F007FB106037
:100E3000C0B2F0BC7047000080B54148016851F075
:100E400001010160006810F00100009000983D4829
:100E5000016851F080510160006810F080500090EE
:100E600000980320FFF731FD002200217FF00B00E6
:100E7000FFF731FD002200217FF00A00FFF72BFD74
:100E8000002200217FF00900FFF725FD002200214C
:100E90007FF00400FFF71FFD002200217FF0030018
:100EA000FFF719FD002200217FF00100FFF713FD7D
:100EB000002200215FF0FF30FFF70DFD2249086896
:100EC00030F0E06050F00070086001BD18B585B0EA
:100ED000040020681D49884211D11948016851F465
:100EE00000710160006810F40070009000980D20FF
:100EF00001900320029001A9154800F055F906B0B1
:100F000010BD1CB5040020681249884216D100F0BB
:100F10007FFA0C48016851F000610160006810F030
:100F200000600090009801200B4908600022002119
:100F30000320FFF7D0FC0320FFF7E2FC13BD000005
:100F4000181002401C10024004000140002401401F
:100F500000080140002800403C0442422DE9F843CB
:100F60000500002600242878C0076CD50027DFF88C
:100F70000C82D8F80000C0000DD4D8F8000050F062
:100F80008050C8F80000D8F8000010F080500090A1
:100F9000009801200700DFF8E891D9F80000C005AB
:100FA00013D4D9F8000050F48070C9F80000FFF79E
:100FB000AFFB0600D9F80000C00506D4FFF7A8FB78
:100FC000801B6528F6D3032052E0DFF8B891D9F8EA
:100FD000000010F440700400002C22D0686810F467
:100FE000407084421DD0D9F8000030F440700400F5
:100FF00065480121016000210160C9F80040E00757
:101000000FD5FFF785FB0600D9F80000800708D44C
:10101000FFF77EFB801B41F289318842F4D3032025
:1010200026E0D9F8001031F4407168680143C9F82E
:1010300000103800C0B2012805D1D8F8000030F007
:101040008050C8F800002878800706D54F490A6804
:1010500032F44042A86802430A602878C00606D5E8
:101060004A490A6832F48002E86802430A600020B4
:10107000BDE8F2832DE9F04385B0040001A844499E
:101080001022FFF771FB43480088ADF800000025EF
:10109000002600275FF000085FF00009200001280B
:1010A00030D0022859D0102863D1384801688846CA
:1010B00039490968C90124D501A9C8F38342895C6B
:1010C0000F005FEAC8310ED569460268C2F340429C
:1010D000895C0D005FEAC83109D53049B1FBF5F1F3
:1010E00079430E0003E02E4901FB07F10E00006872
:1010F000400201D5B14604E070000321B0FBF1F0DD
:10110000814636E01F480068804640F2023010EA0F
:101110000800B0F5817F03D14FF4004081461BE009
:1011200018F44070B0F5007F07D11E4800688007B2
:1011300003D549F6404081460EE018F44070B0F502
:10114000407F07D114480068800303D54FF2244044
:10115000814601E0002081460BE0FFF798FA0B4939
:101160000968C1F38131491C4900B0FBF1F08146A7
:10117000FFE7484605B0BDE8F08300001C100240C0
:10118000007000402010024040044242041002401F
:10119000241B0008620900080010024000127A00B7
:1011A00000093D00241002402DE9F84702000B0021
:1011B00000250026002100275FF000085FF0000EE8
:1011C000BEF1100F80F00181012010FA0EF0050031
:1011D000186828400600AE4240F0F48058680028A5
:1011E00031D0012820D0022825D003283CD0112856
:1011F0001DD0122823D0DFF8D8C1604523D0DFF8F6
:10120000D4C160451FD0DFF8D0C160451BD0DFF8E6
:10121000CCC1604517D0DFF8C8C1604513D0DFF8F6
:10122000C4C160450FD022E0D86807001FE0D8682D
:10123000001D07001BE0D8680830070017E0D868D9
:101240000C30070013E09868002802D10420070042
:1012500009E09868012803D108200700156102E021
:1012600008200700556102E000200700FFE7B6F5FF
:10127000807F01D2140000E0141DB6F5807F02D2F9
:101280005FEA8E0803E0BEF108085FEA88085FF0B5
:101290000F09D4F800C019FA08F03CEA000C17FA5C
:1012A00008F050EA0C0CC4F800C05868C00040F1C7
:1012B00089804D48D0F800C05CF0010CC0F800C037
:1012C000006810F0010000900098DFF820C170461F
:1012D00080085CF820A01EF00300C0B2800019FA5C
:1012E00000F93AEA090A4248824202D15FF0000955
:1012F00013E04048824202D15FF001090DE03E4810
:10130000824202D15FF0020907E03C48824202D1EA
:101310005FF0030901E05FF004091EF00300C0B2B2
:10132000800019FA00F9514659EA01017046800817
:101330004CF820105868C00307D53148D0F800C0D9
:1013400056EA0C0CC0F800C006E02D48D0F800C0EA
:101350003CEA060CC0F800C05868800307D529484D
:10136000D0F800C056EA0C0CC0F800C006E02548D2
:10137000D0F800C03CEA060CC0F800C05868C002B3
:1013800007D52148D0F800C056EA0C0CC0F800C0C0
:1013900006E01D48D0F800C03CEA060CC0F800C0CA
:1013A0005868800207D51948D0F800C056EA0C0CDE
:1013B000C0F800C006E01548D0F800C03CEA060CB2
:1013C000C0F800C01EF1010EFAE6BDE8F18700008A
:1013D0000000111000001210000021100000221067
:1013E00000003110000032101810024008000140C7
:1013F00000080140000C01400010014000140140B1
:101400000004014004040140080401400C040140B0
:10141000012001490860704720000E422DE9F0418B
:1014200004005FF00008002500260027002C01D1F1
:10143000012093E0A068002801D060690028A06A1C
:10144000002807D10020E062002084F8240020005A
:10145000FFF73CFD200000F037F9A16AC90676D4F9
:101460000100C9B2002972D1A16A31F4885151F04A
:101470000201A1626268E1690A43E16852EA41023D
:101480001643A168B1F5807F02D0A168012902D17D
:101490004FF4807100E000210D436169012911D1F1
:1014A000E168002906D1A169491E490351F4006190
:1014B0000D4307E0A16A51F02001A162E16A51F0F9
:1014C0000101E1622168496831F4694129432268D8
:1014D000516021688A68DFF8DC110A4032432168D4
:1014E0008A60A168B1F5807F02D0A168012902D18C
:1014F0004FF4807100E00021B1F5807F03D12169B4
:10150000491E09050F002168C96A31F47001394389
:101510002268D16221688A68DFF89C110A40B242D1
:1015200008D10021E162A16A31F0020151F001010C
:10153000A16212E0A16A31F0020151F01001A16232
:10154000E16A51F00101E1620121080005E0A16AB0
:1015500051F01001A16201210800C0B2BDE8F08184
:1015600078B4020000230020009092F824000128A3
:1015700001D102209BE0012082F82400486807285E
:1015800012D21068446B1F254868461E052046434A
:10159000B540AC430D684868461E05204643B5403B
:1015A0002C431068446329E048680D2812D2106863
:1015B000046B1F254868C61F05204643B540AC4351
:1015C0000D684868C61F05204643B5402C43106887
:1015D000046313E01068C46A1F254868B0F10D0663
:1015E00005204643B540AC430D684868B0F10D0690
:1015F00005204643B5402C431068C46208680A2899
:1016000014D31068C46807250868B0F10A060320DF
:101610004643B540AC438D680868B0F10A06032024
:101620004643B5402C431068C4600FE0106804695D
:1016300007250E6803204643B540AC438D680E680D
:1016400003204643B5402C43106804610868102805
:1016500002D00868112825D11068184CA0421BD16F
:101660001068806800021DD41068806850F4000083
:101670001468A0600868102814D111480068114C43
:10168000B0FBF4F40A20444300940098002809D0E9
:101690000098401E0090F8E7906A50F02000906299
:1016A00001200300002082F824001800C0B272BCA0
:1016B00070470000FDF7E1FFFE0E1FFF0024014010
:1016C0000400002040420F0038B5040000252068C7
:1016D0008068C0071BD520688068400840002168EA
:1016E0008860FFF715F8050020688068C0070ED5F0
:1016F000FFF70EF8401B0328F6D3A06A50F0100045
:10170000A062E06A50F00100E062012000E00020E9
:1017100032BD000080B500F0F5F800F007F800F0E9
:10172000C3F800F056F800F07FF8FEE700B593B07C
:10173000012009905FF480300A9000210B91012173
:101740000D910221109111905FF4E010129009A800
:10175000FEF7CCFC002803D08F21634800F0D0F8BE
:101760000F20049002200590002006904FF4806026
:10177000079000200890022104A8FEF797FE002899
:1017800003D09D21584800F0BBF8032000904FF48F
:10179000407001904FF4004002906846FFF7DEFB76
:1017A000002803D0A521504800F0AAF8FEF76CFFEE
:1017B0004FF47A71B0FBF1F0FFF7A9F80420FFF7BE
:1017C000ACF8002200215FF0FF30FFF784F813B07F
:1017D00000BD1FB5454C464820600020A060002099
:1017E000E060002060615FF46020E06100206060E4
:1017F000012020612000FFF711FE002803D0C52141
:10180000394800F07DF80020009001200190002070
:10181000029069462000FFF7A3FE002803D0CF21E5
:10182000314800F06DF81FBD1CB5324C32482060C5
:101830005FF0FF3060604FF48070A0602000FFF721
:1018400091F8002803D0EA21274800F059F8002039
:101850008DF8040000208DF8050000208DF80600AA
:10186000012201A92000FFF7EBF8002803D0F8219E
:101870001D4800F045F801208DF8000001208DF88A
:10188000010001208DF8020000208DF803000122E4
:1018900069462000FFF740F9002804D040F2051106
:1018A000114800F02DF813BD81B01448016851F0C3
:1018B00010010160016811F01001009100990168A8
:1018C00051F020010160016811F0200100910099A0
:1018D000016851F004010160006810F004000090FC
:1018E000009801B07047000080190008080000202F
:1018F0000024014038000020002800401810024059
:10190000FEE7000080B50748016851F01001016052
:101910000320FEF7DAFF0020FEF700FFFFF78CFA46
:10192000002002BD002002400F49086850F001006D
:1019300008600E4A13680E48034013600B680D4898
:1019400003400B60086830F480200860106830F4B1
:10195000FE0010605FF41F00074908605FF0006040
:101960000649086070470000001002400410024061
:101970000000FFF8FFFFF6FE0810024008ED00E04F
:10198000433A5C416D69745F436861756468617274
:10199000795C53544D33325C50726F6A6563747373
:1019A0005C4941525C4941525F50726F6A65637491
:1019B000735C4D61696E5C4144435F5254435F43C5
:1019C0004C4B5C5372635C6D61696E2E630000006A
:1019D00010B5040020680068C0071AD52068406868
:1019E000C00716D520684068400709D5200000F0E0
:1019F00011F87FF00400216848600420607404E05E
:101A0000200000F008F8012060747FF001002168D8
:101A1000486010BD7047704730B50168846842184F
:101A2000416802EB5103C9070BD54C4409E012F998
:101A3000011B12F8015B002904F8015B05D5491C64
:101A4000F9D19A42F3D10C3030BD491EF1D5F8E7F7
:101A50007047FEE7FEE7FEE7FEE770477047704716
:101A600080B500F00BF8FEF777FF01BD80B50248A6
:101A7000FFF7AEFF01BD00003800002003490A68EF
:101A80000348007882180A60704700BF4C000020AD
:101A90005000002010B5074979441831064C7C44A9
:101AA000163404E00A68081D114488470146A14223
:101AB000F8D110BD08000000140000005DFFFFFF1A
:101AC00050010000180000000000002000F00DF898
:101AD000002801D0FFF7DEFFAFF300800020AFF356
:101AE0000080FFF717FE00F002F80120704700F0B9
:101AF00001B800000746384600F002F8FBE7000096
:101B000080B5AFF30080024A11001820ABBEFBE79E
:101B10002600020002030405060708090A0B0C0D43
:101B20000E0F101002030405060708090A0B0C0D1E
:101B30000E0F10100000000000000000010203045E
:101B4000060708090148804701480047291900088D
:101B5000551B0008AFF30080AFF30080FFF7B6FF1E
:101B60000000000001020304FFF7FEBFFFF7FEBF05
:101B7000FFF7FEBFFFF7FEBFFFF7FEBFFFF7FEBF99
:101B8000FFF7FEBFFFF7FEBFFFF7FEBFFFF7FEBF89
:101B9000FFF7FEBFFFF7FEBFFFF7FEBFFFF7FEBF79
:101BA000FFF7FEBFFFF7FEBFFFF7FEBFFFF7FEBF69
:101BB000FFF7FEBFFFF7FEBFFFF7FEBFFFF7FEBF59
:101BC000FFF7FEBFFFF7FEBFFFF7FEBFFFF7FEBF49
:101BD000FFF7FEBFFFF7FEBFFFF7FEBFFFF7FEBF39
:101BE000FFF7FEBFFFF7FEBFFFF7FEBFFFF7FEBF29
:101BF000FFF7FEBFFFF7FEBFFFF7FEBFFFF7FEBF19
:101C0000FFF7FEBFFFF7FEBFFFF7FEBFFFF7FEBF08
:0C1C10000010FC0002A24A04B800000111
:0400000508001B557F
:00000001FF
