:1000000068400080F18B0000598B00005B8B000082
:100010005D8B00005F8B0000618B00000000000022
:10002000000000000000000000000000638B0000E2
:10003000658B000000000000678B0000698B0000EA
:108000002DE9F8430646DFF888543078C10748D593
:10801000686800F00C00042807D0686800F00C00C5
:1080200008280BD16868C10308D52868810338D5B2
:108030007068002840F0BE80012067E17068B0F5EC
:10804000803F04D1286840F48030286014E008B9EB
:1080500028680AE0B0F5A02F286806D140F48020F7
:108060002860296841F4803105E020F480302860E0
:10807000296821F480212960706868B100F044FA11
:1080800004462868810300F1958000F03DFA001B4A
:108090006528F6D3032039E100F036FA0446286853
:1080A000810340F1878000F02FFA001B6528F6D38A
:1080B000F0E700F029FA001B022840F2AA80E9E765
:1080C000306970B10121396000F01EFA0446286859
:1080D000810700F1DC8000F017FA001B0228F6D9B6
:1080E000D8E7386000F010FA04462968880765D59B
:1080F00000F00AFA001B0228F7D9CBE7086000F06D
:1081000003FA0446686A810777D500F0FDF9001B81
:108110000228F7D9BEE708B9286A09E00528286AC5
:1081200006D140F004002862286A40F0010005E012
:10813000400840002862286A20F00400286241F2CA
:108140008938F06868B100F0DFF98146286A810754
:1081500000F1AA8000F0D8F9A0EB09004045F5D362
:1081600098E700F0D1F98146286A810740F19C80A8
:1081700000F0CAF9A0EB09004045F5D38AE700F00A
:10818000C3F9001B022840F2A28083E700F0BCF98B
:10819000001B022840F2B5807CE700F0B9F80446E5
:1081A0002868810140F1B18000F0AEF9001B02287F
:1081B000F6D96FE73078DFF8E47281071BD568687D
:1081C00010F00C0F09D0686800F00C0008287FF44C
:1081D00077AF6868C1033FF573AF2868810703D59F
:1081E000306901287FF428AF2968706921F0F8010F
:1081F00041EAC0012960317808071DD5B069DFF870
:10820000A01200283FF47AAF01220A6000F07CF946
:108210000446686A81077FF54CAFDFF87802026890
:10822000D2084FF47A71B2FBF1F1009100BF0098CF
:10823000411E00280091F9D13078410739D5E8690D
:108240000024C10009D4E86940F08050E8610124AD
:10825000E86900F0805000900098DFF84882D8F874
:108260000000C1051BD4D8F8000040F48070C8F8A5
:10827000000000F049F98146D8F80000C1050ED48D
:1082800000F042F9A0EB09006528F5D302E7286861
:10829000716920F0F80040EAC1002860ABE7F0689F
:1082A00001287FF438AF3FE71CB1E86920F0805027
:1082B000E861F06948B3696801F00C0108293FF4EE
:1082C000BBAE02287FF469AF00F022F804462868AC
:1082D00081013FF554AF306AB0F5803F05D1696840
:1082E000B06821F40031014369606A68306A716ADC
:1082F00022F4741202430A436A60012000F009F874
:108300000446286881017FF541AF0020BDE8F28373
:108310000020386600F0F8B82DE9F843624F0546B2
:108320003868894600F00700484502D200F079F825
:108330006BD12878564C810705D56268A86822F071
:10834000F002024362602978C80756D568680128A0
:1083500002D121688A0303E00228216802D18A0140
:1083600002D452E08A0750D56168890840EA81004A
:10837000606041F2893800F0C7F806466868012855
:108380000BD1606800F00C00042836D000F0BCF877
:10839000801B4045F5D303202DE0022837D16068CB
:1083A00000F00C00082828D000F0AEF8801B4045F3
:1083B000F5D3F0E72878410705D56268E86822F42C
:1083C000E062024362602978080706D5616828697F
:1083D00021F4605141EAC001616000F02DF862684B
:1083E00032492C4BC2F30312895CC840186000204C
:1083F00000F090F80020BDE8F283386800F0070034
:108400008145D7D200F00DF8D4D00120F3E76068A1
:1084100010F00C0FF1D000F077F8801B4045F6D338
:10842000B9E73968C90849EAC1013960386800F01C
:1084300007004845704700001D4917480A6802F0C8
:108440000C03082B00D0704710B500BF1BA4C2F36B
:108450008343D203E35C08D5096858431BA3C1F3E7
:1084600040415A5CB0FBF2F010BD18461149484338
:1084700010BD08480068704706480D4A0068136838
:108480000D49C3F30222FFE7895CC8407047000032
:10849000001002400C00008000127A0000004242EE
:1084A000800442420070004000200240D08B000057
:1084B0000410024000093D00FC8B0000020304058B
:1084C000060708090A0B0C0D0E0F1010010230B43C
:1084D000002513E050F8042BD30744BFA9F1010392
:1084E0009A18091F042942F8045BFAD213468C0734
:1084F00044BF15809B1CC90748BF1D7050F8041B62
:108500000029E7D130BC704701484068704700BF80
:108510000000008038B50D4D0D4B2A7804464FF40D
:108520007A711868B1FBF2F2B0FBF2F000F049F892
:1085300050B9102C08D2002221464FF0FF3000F035
:1085400023F8AC60002032BD012032BD0000008065
:108550000C0000800901020006D52A4A00F00F0035
:10856000104400F8041C7047274B19547047274BE0
:1085700019684FF6FF020002114000F4E060084362
:10858000234908431860704738B5204B1C68C4F372
:108590000223C3F10704052C28BF04241D1D072D49
:1085A00034BF0023DB1E012505FA04F4641E2140BC
:1085B000994005FA03F35B1E1A401143BDE83440AD
:1085C000C8E710B5401EB0F1807F01D3012010BD77
:1085D000104C60600F214FF0FF30FFF7BBFF002110
:1085E000A16007202060002010BD0428094904D1A3
:1085F000086840F00400086070470A6822F004022E
:108600000A60704718ED00E000E400E00CED00E0C7
:108610000000FA0510E000E000F000B8704700002C
:108620002DE9F8430246002000255E4BDFF87891E3
:1086300001270E68AF403E40BE4240F0AC804C681F
:108640006CB3012C20D0022C23D0032C32D0112C5F
:108650001CD0122C20D0DFF854E174451CBFDFF889
:1086600050E174451BD0DFF84CE174451CBFDFF8C6
:1086700048E1744513D0DFF844E174451CBFDFF8CE
:1086800040E174450BD016E0C86814E0C868001DCE
:1086900011E0C86808300EE0C8680C300BE088684C
:1086A00008B9042007E0012819BF082057610820F5
:1086B000176100E00020B6F5807F03D294464FEAB0
:1086C000850E05E0A5F1080402F1040C4FEA840EC2
:1086D0000F27DCF8008007FA0EF428EA040400FAF9
:1086E0000EFE4EEA0404CCF800404C68E40052D57B
:1086F000D9F80040DFF8CCE044F00104C9F80040AC
:108700004FEA950CD9F8004004F0010400944FEAB8
:108710008508009C5EF82C4008F00C0807FA08F762
:1087200024EA0707284CA24208BF00240ED0274C99
:10873000A24208BF012409D0254CA24208BF02244E
:1087400004D0244CA2420CBF0324042404FA08F4ED
:1087500027434EF82C70F7434C68E4031C684CBF69
:1087600034433C401C604C68A4035C684CBF3443F9
:108770003C405C604C68E4029C684CBF34433C4025
:108780009C604C68A40203D5DF683E43DE6002E0D3
:10879000DE683740DF606D1C0F2D7FF649AFBDE806
:1087A000F183000000040140181002400000111085
:1087B00000001210000021100000221000003110F3
:1087C000000032100800014000080140000C014088
:1087D000001001400014014070B504001BD004F1EA
:1087E0003C05697821B900202870204600F0C1F8C6
:1087F0002421697020680268520852000260FFF765
:108800003BFE01466068DFF8C820904205D2DFF8E1
:10881000C430994205D2012070BDDFF8BC0081420E
:10882000F9D32668DFF8B430B1FBF3F37360606806
:10883000904206D34FF4967043434FF47A76B3FBDD
:10884000F6F320685B1C0362491E6368934206D2FC
:108850005B0000F031F8042813D2042011E0A06876
:1088600020B903EB430300F027F805E01920434348
:1088700000F022F840F4804001050CBF012040F4D4
:1088800000402168C861E269206A216802430A60E9
:10889000E0682269216802438A60A06962692168F0
:1088A0000243CA602021206800F00CF800206860B4
:1088B00069702063A87070BDB1FBF3F0401CC0F379
:1088C0000B007047026842F001020260704700002E
:1088D000A186010080841E0000093D0040420F0077
:1088E00080B53248016841F001010160026802F080
:1088F000010200920099426842F080524260406852
:1089000000F08050009000980320FFF730FE002216
:1089100000216FF00B00FFF737FE002200216FF0FF
:108920000A00FFF731FE002200216FF00900FFF777
:108930002BFE002200216FF00400FFF725FE00222D
:1089400000216FF00300FFF71FFE002200216FF0EF
:108950000100FFF719FE002200214FF0FF30FFF762
:1089600013FE1348016821F0E06141F000710160DD
:1089700001BD00680F49884200D07047F8B5C02299
:108980000092122101910322039269460A48FFF7DF
:1089900047FE0A48016841F400110160006800F4D4
:1089A00000100090009805B000BD000018100240B3
:1089B0000400014000540040000C01401C10024023
:1089C00080B500F07BF800F041F81C48016841F0E8
:1089D00010010160026802F0100200920099026822
:1089E00042F020020260036803F020030093009924
:1089F000026842F004020260036803F0040300937B
:108A00000023009902680E4942F0080202600068E3
:108A10000C4A00F00800009000980B4842604FF4A8
:108A2000804201608360C360026143618361C3610E
:108A30000362FFF7D1FE00B1FEE7FEE71810024027
:108A400000540040A08601001000008000B54FF4E3
:108A5000803100228FB0069107920D910120059080
:108A6000099002224FF4E0110C920E9105A8FFF735
:108A7000C7FA00B1FEE7022101910F204FF4806197
:108A80000090002203910292049202216846FFF7AF
:108A900043FC00B1FEE7FFF7ECFC4FF47A71B0FB4A
:108AA000F1F0FFF78EFD0420FFF79FFD002200216B
:108AB0004FF0FF30FFF768FD0FB000BD80B50748ED
:108AC000016841F0100101600320FFF750FD002014
:108AD000FFF720FDFFF704FF002002BD0020024049
:108AE00030B450F8041B79B102684368024408307E
:108AF000DC0744BFA9F10104E31852F8045B43F812
:108B0000045B091FF9D1ECE730BC704710B5074989
:108B100079441831064C7C44163404E00A68081D78
:108B2000114488470146A142F8D110BD0800000059
:108B3000280000009BF9FFFF540000001000008097
:108B4000000000009DFFFFFF1000000094000000E7
:108B500000000080000000007047FEE7FEE7FEE72F
:108B6000FEE770477047704780B500F005F8BDE834
:108B70000140FFF751BD000002494A680878821899
:108B80004A6070470000008000F00DF8002801D016
:108B9000FFF7BCFFAFF300800020AFF30080FFF7CA
:108BA0000FFF00F002F80120704700F001B800004C
:108BB0000746384600F002F8FBE7000080B5AFF347
:108BC0000080024A11001820ABBEFBE7260002001D
:108BD000000000000000000001020304060708096D
:108BE00001000000000000001000000000A24A0484
:108BF000AFF30080AFF30080FFF7C6FF0000000076
:048C00000102030466
:0400000500008BF17B
:00000001FF
