:020000040800F2
:10000000500400206D0E0008F50D0008F70D0008E3
:10001000F90D0008FB0D0008FD0D000800000000B0
:10002000000000000000000000000000FF0D0008BC
:10003000010E000800000000030E0008050E000875
:10004000910E0008950E0008990E00089D0E0008FC
:10005000A10E0008A50E0008A90E0008AD0E0008AC
:10006000B10E0008B50E0008B90E0008BD0E00085C
:10007000C10E0008C50E0008C90E0008CD0E00080C
:10008000D10E0008D50E0008D90E0008DD0E0008BC
:10009000E10E0008E50E0008E90E0008ED0E00086C
:1000A000F10E0008F50E0008F90E0008FD0E00081C
:1000B000010F0008050F0008090F00080D0F0008C8
:1000C000110F0008150F0008190F00081D0F000878
:1000D000210F0008250F0008290F00082D0F000828
:1000E000310F0008350F0008390F00082DE9F843DB
:1000F0000646DFF894543078C10748D5686800F0A8
:100100000C00042807D0686800F00C0008280BD108
:100110006868C10308D52868810338D5706800284D
:1001200040F0BE80012067E17068B0F5803F04D1E7
:10013000286840F48030286014E008B928680AE094
:10014000B0F5A02F286806D140F4802028602968E7
:1001500041F4803105E020F480302860296821F4E2
:1001600080212960706868B100F02EFA0446286882
:10017000810300F1958000F027FA001B6528F6D373
:10018000032039E100F020FA04462868810340F199
:10019000878000F019FA001B6528F6D3F0E700F01D
:1001A00013FA001B022840F2AA80E9E7306970B117
:1001B0000121396000F008FA04462868810700F13F
:1001C000DC8000F001FA001B0228F6D9D8E738607D
:1001D00000F0FAF904462968880765D500F0F4F9BB
:1001E000001B0228F7D9CBE7086000F0EDF90446C0
:1001F000686A810777D500F0E7F9001B0228F7D974
:10020000BEE708B9286A09E00528286A06D140F047
:1002100004002862286A40F0010005E04008400020
:100220002862286A20F00400286241F28938F068C8
:1002300068B100F0C9F98146286A810700F1AA80F7
:1002400000F0C2F9A0EB09004045F5D398E700F0B3
:10025000BBF98146286A810740F19C8000F0B4F91F
:10026000A0EB09004045F5D38AE700F0ADF9001B8B
:10027000022840F2A28083E700F0A6F9001B0228C2
:1002800040F2B5807CE700F0B9F8044628688101A7
:1002900040F1B18000F098F9001B0228F6D96FE711
:1002A0003078DFF8F07281071BD5686810F00C0F0A
:1002B00009D0686800F00C0008287FF477AF686800
:1002C000C1033FF573AF2868810703D53069012862
:1002D0007FF428AF2968706921F0F80141EAC00174
:1002E0002960317808071DD5B069DFF8AC12002805
:1002F0003FF47AAF01220A6000F066F90446686AAA
:1003000081077FF54CAFDFF884020268D2084FF412
:100310007A71B2FBF1F1009100BF0098411E0028F4
:100320000091F9D13078410739D5E8690024C1003E
:1003300009D4E86940F08050E8610124E86900F0E0
:10034000805000900098DFF85482D8F80000C10572
:100350001BD4D8F8000040F48070C8F8000000F00A
:1003600033F98146D8F80000C1050ED400F02CF90D
:10037000A0EB09006528F5D302E72868716920F031
:10038000F80040EAC1002860ABE7F06801287FF47C
:1003900038AF3FE71CB1E86920F08050E861F069B0
:1003A00048B3696801F00C0108293FF4BBAE02288C
:1003B0007FF469AF00F022F80446286881013FF518
:1003C00054AF306AB0F5803F05D16968B06821F458
:1003D0000031014369606A68306A716A22F47412FC
:1003E00002430A436A60012000F009F804462868C5
:1003F00081017FF541AF0020BDE8F283002038661F
:1004000000F0E2B82DE9F843654F054638688946A3
:1004100000F00700484502D200F079F86BD1287847
:10042000594C810705D56268A86822F0F0020243A2
:1004300062602978C80756D56868012802D121680A
:100440008A0303E00228216802D18A0102D452E023
:100450008A0750D56168890840EA8100606041F2EE
:10046000893800F0B1F80646686801280BD1606849
:1004700000F00C00042836D000F0A6F8801B4045A0
:10048000F5D303202DE0022837D1606800F00C007E
:10049000082828D000F098F8801B4045F5D3F0E7F5
:1004A0002878410705D56268E86822F4E0620243D3
:1004B00062602978080706D56168286921F46051CF
:1004C00041EAC001616000F02DF8626835492F4BA8
:1004D000C2F30312895CC8401860002000F07AF86B
:1004E0000020BDE8F283386800F007008145D7D2CC
:1004F00000F00DF8D4D00120F3E7606810F00C0F85
:10050000F1D000F061F8801B4045F6D3B9E73968B7
:10051000C90849EAC1013960386800F00700484558
:100520007047000020491A480A6802F00C03082BA3
:1005300000D0704710B500BF1EA4C2F38343D2039E
:10054000E35C08D5096858431EA3C1F340415A5CD7
:10055000B0FBF2F010BD18461449484310BD0B48DB
:10056000006870470948104A006813681049C3F3CF
:10057000022206E005480C4A006813680C49C3F3E0
:10058000C222895CC8407047001002400C00002065
:1005900000127A0000004242800442420070004093
:1005A00000200240740D00080410024000093D00C4
:1005B000880E000802030405060708090A0B0C0D43
:1005C0000E0F10100102000001484068704700BF84
:1005D0000000002038B50D4D0D4B2A7804464FF42D
:1005E0007A711868B1FBF2F2B0FBF2F000F049F852
:1005F00050B9102C08D2002221464FF0FF3000F0F5
:1006000023F8AC60002032BD012032BD0000002084
:100610000C0000200901020006D52A4A00F00F0054
:10062000104400F8041C7047274B19547047274B9F
:1006300019684FF6FF020002114000F4E060084321
:10064000234908431860704738B5204B1C68C4F331
:100650000223C3F10704052C28BF04241D1D072D08
:1006600034BF0023DB1E012505FA04F4641E21407B
:10067000994005FA03F35B1E1A401143BDE834406C
:10068000C8E710B5401EB0F1807F01D3012010BD36
:10069000104C60600F214FF0FF30FFF7BBFF0021CF
:1006A000A16007202060002010BD0428094904D162
:1006B000086840F00400086070470A6822F00402ED
:1006C0000A60704718ED00E000E400E00CED00E087
:1006D0000000FA0510E000E000F000B870470000EC
:1006E00038B5040001D1012032BD00F021F808B96D
:1006F00000F022F800F012F800F023F8FFE7416163
:1007000000F001F832BD2068C16841F40051C160B9
:100710000020686020216970A970704724206870EB
:100720002068C16821F40051C160204600F09FB8E4
:1007300004F138056878704700212970204600F0E0
:1007400056B92068016921F490410161206841692E
:1007500021F02A0170472DE9F843054605F13807D5
:100760000C4678782028164698463DD1002C14BFB8
:10077000002E012039D03878012835D00121397078
:100780000020786021227A70FFF71EFFAE84814638
:10079000EE8403E0296814F8010B4860E88C30B35C
:1007A000E88C411EE9844B46A868CDF80080B0F57E
:1007B000805F0DD100F025F870B920882968C0F35A
:1007C000080048602869002814BF641CA41CE5E7E1
:1007D00000F017F80028DDD0032006E02020787014
:1007E00000213970002000E00220BDE8F283CDF83E
:1007F00000804B460022402100F005F80028EDD093
:10080000EAE7002280212846FFE72DE9F041069C17
:1008100005460E4690461F46286801683140B142A1
:100820000CBF01200020404517D114F1010FF3D077
:1008300024B1FFF7C9FEC01B8442EDD22868C1680D
:1008400021F4D07100F00CF805F13800202141703E
:10085000817000210170032000E00020BDE8F081DC
:10086000C1602868416949084900416170472DE924
:10087000F0470446642522681169E06821F440517C
:10088000014311611926D3683249A0680B402169E0
:10089000034360690B430343D3605169A06921F4AA
:1008A000407101432C48516182420ED1FFF762FE34
:1008B0000746FFF75FFE8046FFF75CFE8146FFF7C5
:1008C00059FE8246FFF756FE0DE0FFF74BFE074646
:1008D000FFF748FE8046FFF745FE8146FFF742FEE0
:1008E0008246FFF73FFE616889007743B7FBF1F36B
:1008F0006422B3FBF2F206FB08F3B3FBF1F706FB4D
:1009000009F3B3FBF1FCAE46BCFBFEFE05FB1E7714
:100910003F0132376423B7FBF3F303F0F00303EB3B
:10092000021306FB0AF74643B7FBF1F2B6FBF1F000
:100930006421B0FBF1F105FB11252D013235642056
:10094000B5FBF0F0216800F00F00C3188B60BDE824
:10095000F0870000F3E9FFFF0038014080B5384818
:10096000016841F001010160026802F00102009299
:100970000099426842F080524260406800F0805026
:10098000009000980320FFF752FE002200216FF034
:100990000B00FFF759FE002200216FF00A00FFF75D
:1009A00053FE002200216FF00900FFF74DFE0022E8
:1009B00000216FF00400FFF747FE002200216FF0D6
:1009C0000300FFF741FE002200216FF00100FFF756
:1009D0003BFE002200214FF0FF30FFF735FE1948A3
:1009E000016821F0E06141F08061016001BD0068B3
:1009F0001549884200D0704718B51148134C85B08E
:100A0000026842F4804202604FF40071006800F412
:100A100080400090022200980191029203210491EB
:100A2000204601A900F014F800214FF480620291E1
:100A30000391019201A9204600F00AF806B010BD0A
:100A40001810024004000140003801400008014035
:100A50002DE9F8430246002000255E4BDFF878912F
:100A600001270E68AF403E40BE4240F0AC804C686B
:100A70006CB3012C20D0022C23D0032C32D0112CAB
:100A80001CD0122C20D0DFF854E174451CBFDFF8D5
:100A900050E174451BD0DFF84CE174451CBFDFF812
:100AA00048E1744513D0DFF844E174451CBFDFF81A
:100AB00040E174450BD016E0C86814E0C868001D1A
:100AC00011E0C86808300EE0C8680C300BE0886898
:100AD00008B9042007E0012819BF08205761082041
:100AE000176100E00020B6F5807F03D294464FEAFC
:100AF000850E05E0A5F1080402F1040C4FEA840E0E
:100B00000F27DCF8008007FA0EF428EA040400FA44
:100B10000EFE4EEA0404CCF800404C68E40052D5C6
:100B2000D9F80040DFF8CCE044F00104C9F80040F7
:100B30004FEA950CD9F8004004F0010400944FEA04
:100B40008508009C5EF82C4008F00C0807FA08F7AE
:100B500024EA0707284CA24208BF00240ED0274CE5
:100B6000A24208BF012409D0254CA24208BF02249A
:100B700004D0244CA2420CBF0324042404FA08F439
:100B800027434EF82C70F7434C68E4031C684CBFB5
:100B900034433C401C604C68A4035C684CBF344345
:100BA0003C405C604C68E4029C684CBF34433C4071
:100BB0009C604C68A40203D5DF683E43DE6002E01F
:100BC000DE683740DF606D1C0F2D7FF649AFBDE852
:100BD000F1830000000401401810024000001110D1
:100BE000000012100000211000002210000031103F
:100BF000000032100800014000080140000C0140D4
:100C000000100140001401401CB500F07BF800F01A
:100C10003DF81B481B4C016841F01001016002685F
:100C200002F0100200920099026842F02002026075
:100C3000036803F02003009300990268124942F010
:100C4000040202604FF41652006800F004000090A5
:100C5000009821600020A060E06020610C21A0616C
:100C6000E061626061612046FFF73AFD00B1FEE796
:100C70006423042221A12046FFF76DFD002016BD4C
:100C800018100240100000200038014000B54FF459
:100C9000803100228FB0069107920D9101200590BE
:100CA000099002224FF4E0110C920E9105A8FFF773
:100CB0001DFA00B1FEE7022101910F204FF480617F
:100CC0000090002203910292049202216846FFF7ED
:100CD00099FB00B1FEE7FFF742FC4FF47A71B0FBDD
:100CE000F1F0FFF7CEFC0420FFF7DFFC002200212B
:100CF0004FF0FF30FFF7A8FC0FB000BD416D6974E5
:100D00000000000080B50748016841F01001016053
:100D10000320FFF78CFC0020FFF75CFCFFF71EFEB2
:100D2000002002BD0020024010B50E4A0E49106896
:100D300040F00100106053680C480B405360146889
:100D400004401460116821F4802111604FF41F01E8
:100D5000506820F4FE00506091604FF00060044A3B
:100D6000106010BD001002400000FFF8FFFFF6FE0B
:100D700008ED00E000000000000000000102030494
:100D80000607080930B5016884684218416802EB1B
:100D90005103C9070BD54C4409E012F9011B12F8A5
:100DA000015B002904F8015B05D5491CF9D19A4281
:100DB000F3D10C3030BD491EF1D5F8E710B5074925
:100DC00079441831064C7C44163404E00A68081D46
:100DD000114488470146A142F8D110BD0800000027
:100DE00014000000A1FFFFFF540100001C000000E0
:100DF000000000207047FEE7FEE7FEE7FEE77047D1
:100E00007047704780B500F005F8BDE80140FFF776
:100E100063BC000002494A68087882184A6070473B
:100E20000000002000F00DF8002801D0FFF7C6FFF9
:100E3000AFF300800020AFF30080FFF7E5FE00F085
:100E400002F80120704700F001B80000074638465C
:100E500000F002F8FBE7000080B5AFF30080024A23
:100E600011001820ABBEFBE72600020001488047B6
:100E700001480047290D00087D0E0008AFF30080EF
:100E8000AFF30080FFF7CEFF000000000102030473
:100E9000FFF7FEBFFFF7FEBFFFF7FEBFFFF7FEBF86
:100EA000FFF7FEBFFFF7FEBFFFF7FEBFFFF7FEBF76
:100EB000FFF7FEBFFFF7FEBFFFF7FEBFFFF7FEBF66
:100EC000FFF7FEBFFFF7FEBFFFF7FEBFFFF7FEBF56
:100ED000FFF7FEBFFFF7FEBFFFF7FEBFFFF7FEBF46
:100EE000FFF7FEBFFFF7FEBFFFF7FEBFFFF7FEBF36
:100EF000FFF7FEBFFFF7FEBFFFF7FEBFFFF7FEBF26
:100F0000FFF7FEBFFFF7FEBFFFF7FEBFFFF7FEBF15
:100F1000FFF7FEBFFFF7FEBFFFF7FEBFFFF7FEBF05
:100F2000FFF7FEBFFFF7FEBFFFF7FEBFFFF7FEBFF5
:100F3000FFF7FEBFFFF7FEBFFFF7FEBF0001F9009E
:0A0F40000010FC0002A24A04C000E9
:0400000508000E7D64
:00000001FF
