:020000040800F2
:10000000F0040020990F0008950E0008970E0008D4
:10001000990E00089B0E00089D0E000800000000CD
:100020000000000000000000000000009F0E00081B
:10003000A10E000800000000A30E0008A50E000895
:10004000C50F0008C90F0008CD0F0008D10F000828
:10005000D50F0008D90F0008DD0F0008E10F0008D8
:10006000E50F0008E90F0008ED0F0008F10F000888
:10007000B30E0008B90E0008F50F0008F90F0008CC
:10008000FD0F000801100008051000080910000805
:100090000D100008111000081510000819100008B4
:1000A0001D10000821100008251000082910000864
:1000B0002D10000831100008351000083910000814
:1000C0003D100008411000084510000849100008C4
:1000D0004D10000851100008551000085910000874
:1000E0005D10000861100008651000082DE9F84354
:1000F0000646DFF870543078C10748D5686800F0CC
:100100000C00042807D0686800F00C0008280BD108
:100110006868C10308D52868810338D5706800284D
:1001200040F0BE80012067E17068B0F5803F04D1E7
:10013000286840F48030286014E008B928680AE094
:10014000B0F5A02F286806D140F4802028602968E7
:1001500041F4803105E020F480302860296821F4E2
:1001600080212960706868B100F036FA044628687A
:10017000810300F1958000F02FFA001B6528F6D36B
:10018000032039E100F028FA04462868810340F191
:10019000878000F021FA001B6528F6D3F0E700F015
:1001A0001BFA001B022840F2AA80E9E7306970B10F
:1001B0000121396000F010FA04462868810700F137
:1001C000DC8000F009FA001B0228F6D9D8E7386075
:1001D00000F002FA04462968880765D500F0FCF9AA
:1001E000001B0228F7D9CBE7086000F0F5F90446B8
:1001F000686A810777D500F0EFF9001B0228F7D96C
:10020000BEE708B9286A09E00528286A06D140F047
:1002100004002862286A40F0010005E04008400020
:100220002862286A20F00400286241F28938F068C8
:1002300068B100F0D1F98146286A810700F1AA80EF
:1002400000F0CAF9A0EB09004045F5D398E700F0AB
:10025000C3F98146286A810740F19C8000F0BCF90F
:10026000A0EB09004045F5D38AE700F0B5F9001B83
:10027000022840F2A28083E700F0AEF9001B0228BA
:1002800040F2B5807CE700F0B9F8044628688101A7
:1002900040F1B18000F0A0F9001B0228F6D96FE709
:1002A0003078DFF8CC7281071BD5686810F00C0F2E
:1002B00009D0686800F00C0008287FF477AF686800
:1002C000C1033FF573AF2868810703D53069012862
:1002D0007FF428AF2968706921F0F80141EAC00174
:1002E0002960317808071DD5B069DFF88812002829
:1002F0003FF47AAF01220A6000F06EF90446686AA2
:1003000081077FF54CAFDFF860020268D2084FF436
:100310007A71B2FBF1F1009100BF0098411E0028F4
:100320000091F9D13078410739D5E8690024C1003E
:1003300009D4E86940F08050E8610124E86900F0E0
:10034000805000900098DFF83082D8F80000C10596
:100350001BD4D8F8000040F48070C8F8000000F00A
:100360003BF98146D8F80000C1050ED400F034F9FD
:10037000A0EB09006528F5D302E72868716920F031
:10038000F80040EAC1002860ABE7F06801287FF47C
:1003900038AF3FE71CB1E86920F08050E861F069B0
:1003A00048B3696801F00C0108293FF4BBAE02288C
:1003B0007FF469AF00F022F80446286881013FF518
:1003C00054AF306AB0F5803F05D16968B06821F458
:1003D0000031014369606A68306A716A22F47412FC
:1003E00002430A436A60012000F009F804462868C5
:1003F00081017FF541AF0020BDE8F283002038661F
:1004000000F0EAB82DE9F8435C4F054638688946A4
:1004100000F00700484502D200F079F86BD1287847
:10042000504C810705D56268A86822F0F0020243AB
:1004300062602978C80756D56868012802D121680A
:100440008A0303E00228216802D18A0102D452E023
:100450008A0750D56168890840EA8100606041F2EE
:10046000893800F0B9F80646686801280BD1606841
:1004700000F00C00042836D000F0AEF8801B404598
:10048000F5D303202DE0022837D1606800F00C007E
:10049000082828D000F0A0F8801B4045F5D3F0E7ED
:1004A0002878410705D56268E86822F4E0620243D3
:1004B00062602978080706D56168286921F46051CF
:1004C00041EAC001616000F02DF862682C49264BBA
:1004D000C2F30312895CC8401860002000F082F863
:1004E0000020BDE8F283386800F007008145D7D2CC
:1004F00000F00DF8D4D00120F3E7606810F00C0F85
:10050000F1D000F069F8801B4045F6D3B9E73968AF
:10051000C90849EAC1013960386800F00700484558
:1005200070470000174911480A6802F00C03082BB5
:1005300000D0704710B500BF14A4C2F38343D203A8
:10054000E35C08D50968584314A3C1F340415A5CE1
:10055000B0FBF2F010BD18460B49484310BD0248ED
:1005600000687047001002400C00002000127A0062
:1005700000004242800442420070004000200240DD
:10058000840E00080410024000093D000203040527
:10059000060708090A0B0C0D0E0F1010010230B4EB
:1005A000002513E050F8042BD30744BFA9F1010341
:1005B0009A18091F042942F8045BFAD213468C07E3
:1005C00044BF15809B1CC90748BF1D7050F8041B11
:1005D0000029E7D130BC704701484068704700BF30
:1005E0000000002038B50D4D0D4B2A7804464FF41D
:1005F0007A711868B1FBF2F2B0FBF2F000F053F838
:1006000050B9102C08D2002221464FF0FF3000F0E4
:1006100023F8AC60002032BD012032BD0000002074
:100620000C0000200901020006D52F4A00F00F003F
:10063000104400F8041C70472C4B195470472C4B85
:1006400019684FF6FF020002114000F4E060084311
:10065000284908431860704738B5254B1C68C4F317
:100660000223C3F10704052C28BF04241D1D072DF8
:1006700034BF0023DB1E012505FA04F4641E21406B
:10068000994005FA03F35B1E1A401143BDE834405C
:10069000C8E7012200F01F01174BFFE78A4040091D
:1006A00043F82020704710B5401EB0F1807F01D381
:1006B000012010BD114C60600F214FF0FF30FFF79B
:1006C000B1FF0021A16007202060002010BD042898
:1006D0000A4904D1086840F00400086070470A68BD
:1006E00022F004020A60704718ED00E000E400E028
:1006F0000CED00E00000FA0500E100E010E000E091
:1007000000F000B87047000030B508B9012030BDD6
:100710000468DFF8A8110919142200F12803B1FBBD
:10072000F2F292009A610222DFF89411596180F886
:1007300021202568416882686FF30D150D43C1685B
:10074000154302690D434169154382690D43C1692F
:1007500015430D43256000241C605C609C60DC60D8
:100760001C6100F002F8002030BD012280F8212039
:1007700080F8204070472DE9F84F00F12802042747
:100780005169554BD1F800E0056854492E68D2F8FC
:1007900018A0504CDFF83881DFF83091DFF828B12D
:1007A000DFF820C107FA0AF71EEA070F2DD07707F6
:1007B0002BD52E68B60603D42E6826F004062E60CC
:1007C0000568654508BF042318D05D4508BF402370
:1007D00014D04D4508BF4FF480630FD0454508BF86
:1007E0004FF480430AD0A54208BF4FF4802305D0C0
:1007F0009D420CBF4FF480034FF080630B60516843
:10080000002958D0BDE8F44F0847022707FA0AF735
:100810001EEA070F32D0B70730D52E68B60606D4C9
:100820002E6826F00A062E60012580F82150056802
:10083000654508BF022318D05D4508BF202314D0AA
:100840004D4508BF4FF400730FD0454508BF4FF426
:1008500000530AD0A54208BF4FF4003305D09D4293
:100860000CBF4FF400134FF000730B60002180F8B1
:1008700020101168F9B1BDE8F44F0847082101FACA
:100880000AF11EEA010F16D0310714D52B6823F0A8
:100890000E032B600124916953698C405C60012137
:1008A000116180F82110002180F82010916811B1A9
:1008B000BDE8F44F0847BDE8F18F0000F8FFFDBF29
:1008C00000000240080002401C00024030000240CC
:1008D00044000240580002406C0002400400024004
:1008E00080B55048016841F001010160026802F0E2
:1008F000010200920099426842F0805242604068D2
:1009000000F08050009000980320FFF798FE00222E
:1009100000216FF00B00FFF79FFE002200216FF017
:100920000A00FFF799FE002200216FF00900FFF78F
:1009300093FE002200216FF00400FFF78DFE0022DD
:1009400000216FF00300FFF787FE002200216FF007
:100950000100FFF781FE002200214FF0FF30FFF77A
:100960007BFE3148016821F0E06141F000710160D7
:1009700001BD0000F0B5044685B020682B498842CF
:100980004ED128482A4D0268DFF8A8602CA742F40F
:1009900080520260B021006800F480500090022272
:1009A00000980191029203210491284601A900F0C8
:1009B00081F80021402202910391019201A9284669
:1009C00000F078F80020706000218020F060B160B5
:1009D00031617161B161F1613046174D3560FFF7EA
:1009E00093FE18B18121384600F0D2F9E6647462B2
:1009F00005F11400114E3060802010210022F060BB
:100A00007160B26032617261B261F2613046FFF7CB
:100A10007BFE18B19121384600F0BAF9A6647462E1
:100A200005B0F0BD18100240040001400030014044
:100A300000080140680000201C000240AC000020BB
:100A4000433A5C416D69745F4368617564686172C3
:100A5000795C53544D33325C50726F6A65637473C2
:100A60005C4941525C4941525F50726F6A656374E0
:100A7000735C4350505F447269766572735C535087
:100A8000495C5350495F437562654D585C5350490A
:100A90005F444D415F4D43585C5372635C73746DAA
:100AA0003332663178785F68616C5F6D73702E6386
:100AB000000000002DE9F8430246002000255E4BAF
:100AC000DFF8789101270E68AF403E40BE4240F00B
:100AD000AC804C686CB3012C20D0022C23D0032CAA
:100AE00032D0112C1CD0122C20D0DFF854E17445E8
:100AF0001CBFDFF850E174451BD0DFF84CE17445B2
:100B00001CBFDFF848E1744513D0DFF844E17445B9
:100B10001CBFDFF840E174450BD016E0C86814E054
:100B2000C868001D11E0C86808300EE0C8680C30C5
:100B30000BE0886808B9042007E0012819BF0820E5
:100B400057610820176100E00020B6F5807F03D2CE
:100B500094464FEA850E05E0A5F1080402F1040C65
:100B60004FEA840E0F27DCF8008007FA0EF428EA1B
:100B7000040400FA0EFE4EEA0404CCF800404C686F
:100B8000E40052D5D9F80040DFF8CCE044F001048D
:100B9000C9F800404FEA950CD9F8004004F0010470
:100BA00000944FEA8508009C5EF82C4008F00C0881
:100BB00007FA08F724EA0707284CA24208BF0024D6
:100BC0000ED0274CA24208BF012409D0254CA242D6
:100BD00008BF022404D0244CA2420CBF03240424E6
:100BE00004FA08F427434EF82C70F7434C68E403EA
:100BF0001C684CBF34433C401C604C68A4035C68D8
:100C00004CBF34433C405C604C68E4029C684CBF81
:100C100034433C409C604C68A40203D5DF683E43EB
:100C2000DE6002E0DE683740DF606D1C0F2D7FF66E
:100C300049AFBDE8F18300000004014018100240F4
:100C400000001110000012100000211000002210FE
:100C5000000031100000321008000140000801407F
:100C6000000C0140001001400014014080B500F06C
:100C700091F800F055F82748416841F010014160B3
:100C8000416801F0100100910099426842F0200291
:100C90004260416801F0200100910099426842F0F1
:100CA00004024260416801F0040100910099026869
:100CB00042F0010202600022006800F00100009092
:100CC000002100980C20FFF7C7FC0C20FFF7E1FC87
:100CD000002200210D20FFF7BFFC0D20FFF7D9FCFB
:100CE0000D480E4901604FF4827238214260C161A3
:100CF00000234FF480220A218360C36003614361B3
:100D00008261036243628362C16200F055F800B100
:100D1000FEE7FEE714100240100000200030014002
:100D200000B54FF4803100228FB0069107920D91EB
:100D300001200590099002224FF4E0110C920E91CF
:100D400005A8FFF7D3F900B1FEE7022101910F20BA
:100D50004FF48061009000220391029204920221DC
:100D60006846FFF74FFB00B1FEE7FFF7F8FB4FF4D3
:100D70007A71B0FBF1F0FFF796FC0420FFF7A7FCB7
:100D8000002200214FF0FF30FFF766FC0FB000BDDE
:100D9000FEE7000080B50748016841F010010160DE
:100DA0000320FFF74CFC0020FFF71CFCFFF798FD29
:100DB000002002BD0020024010B5040001D1012036
:100DC00010BD0021A16294F8510010B92046FFF730
:100DD000D1FD022084F851002068016821F0400113
:100DE00001606268A168E06823680A4321690243E0
:100DF00060690A43A169024301F40071E0690A4392
:100E0000216A0243A06A0A4302431A60A169606A28
:100E10002268090C01F00401014351602168E06A75
:100E200008612068C16921F40061C161002060652A
:100E3000012184F8511010BD10B50E4A0E491068FA
:100E400040F00100106053680C480B405360146878
:100E500004401460116821F4802111604FF41F01D7
:100E6000506820F4FE00506091604FF00060044A2A
:100E7000106010BD001002400000FFF8FFFFF6FEFA
:100E800008ED00E000000000000000000102030483
:100E9000060708097047FEE7FEE7FEE7FEE7704732
:100EA0007047704780B500F00FF8BDE80140FFF7CC
:100EB00027BC0348FFF75FBC0248FFF75CBC00009B
:100EC00068000020AC00002002494A6808788218B7
:100ED0004A6070470000002030B450F8041B79B11C
:100EE0000268436802440830DC0744BFA9F10104EA
:100EF000E31852F8045B43F8045B091FF9D1ECE7EF
:100F000030BC704710B5074979441831064C7C4411
:100F1000163404E00A68081D114488470146A142BE
:100F2000F8D110BD080000002800000073F6FFFF94
:100F3000E000000010000020000000009DFFFFFF07
:100F4000100000006400000000000020000000000D
:100F500000F00DF8002801D0FFF7D4FFAFF30080B8
:100F60000020AFF30080FFF781FE00F002F80120BF
:100F7000704700F001B800000746384600F002F85C
:100F8000FBE7000080B5AFF30080024A1100182093
:100F9000ABBEFBE72600020001488047014800473E
:100FA000390E0008B90F0008010000000000000021
:100FB0001000000000A24A04AFF30080AFF30080ED
:100FC000FFF7C6FFFFF7FEBFFFF7FEBFFFF7FEBF4D
:100FD000FFF7FEBFFFF7FEBFFFF7FEBFFFF7FEBF45
:100FE000FFF7FEBFFFF7FEBFFFF7FEBFFFF7FEBF35
:100FF000FFF7FEBFFFF7FEBFFFF7FEBFFFF7FEBF25
:10100000FFF7FEBFFFF7FEBFFFF7FEBFFFF7FEBF14
:10101000FFF7FEBFFFF7FEBFFFF7FEBFFFF7FEBF04
:10102000FFF7FEBFFFF7FEBFFFF7FEBFFFF7FEBFF4
:10103000FFF7FEBFFFF7FEBFFFF7FEBFFFF7FEBFE4
:10104000FFF7FEBFFFF7FEBFFFF7FEBFFFF7FEBFD4
:10105000FFF7FEBFFFF7FEBFFFF7FEBFFFF7FEBFC4
:08106000FFF7FEBFFFF7FEBF22
:0400000508000FB927
:00000001FF
