:020000040800F2
:100000001012002095240008CD230008CF230008FB
:10001000D1230008D3230008D523000800000000E6
:10002000000000000000000000000000D7230008CE
:10003000D923000800000000DB230008DD230008AE
:10004000B1240008B5240008B9240008BD24000824
:10005000C1240008C5240008C9240008CD240008D4
:10006000D1240008D5240008D9240008DD24000884
:10007000E1240008E5240008E9240008ED24000834
:10008000F1240008F5240008F9240008FD240008E4
:10009000EB230008012500080525000809250008B4
:1000A0000D25000811250008152500081925000850
:1000B0001D25000821250008252500082925000800
:1000C0002D250008312500083525000839250008B0
:1000D0003D25000841250008452500084925000860
:1000E0004D250008512500085525000878B585B034
:1000F000044600260CB9012046E004F585656878C1
:1001000018B92E70204600F04DFB0320687020685F
:1001100000F099FC83B000F039F80EBC206800F0C4
:100120008BFC2068002100F093FC002204EB4610B9
:100130002830067086810121761C0F2E4170C27016
:10014000026142618261F1D30020002304EB40117F
:1001500001F50A72537010708886D370401C0F2806
:10016000136153619361F1D383B000F00FF80EBCBB
:10017000206800F06FFC002084F8240001216970E1
:10018000206800F033FF002006B070BD211D6846D6
:10019000202200F06BBF10B500F09FF801D10220C3
:1001A00010BD00F08FF8206800F01EFF206800F0FE
:1001B00045FC8EE038B5044600F081F8000444BFE9
:1001C000204600F05DF900F07AF840050CD500F00B
:1001D00072F84FF6FF3000F06AF8204600F015FB89
:1001E0000021204600F07EF800F069F8400405D5B3
:1001F00000F061F84BF6FF7000F059F800F05FF87E
:10020000800405D500F057F84DF6FF7000F04FF868
:1002100000F055F8C00417D52168B1F840204FF61A
:10022000FB700240A1F840204FF6F770B1F8402073
:100230000240A1F84020204600F002FB00F03BF80D
:100240004EF6FF7000F033F800F039F8000516D5CF
:10025000206800F14002118841F0080111804FF23E
:10026000FF7193880B409380158845F00405158035
:1002700000F0BEFEC0045CBF204600F0D3FA00F0E0
:100280001EF8800508D500F016F84FF6FF5000F074
:100290000EF8204600F0B5FA00F011F8C00505D5BB
:1002A00000F009F84FF6FF6000F001F831BD0240A0
:1002B000A1F8442070472168B1F8442070472068B5
:1002C00000F096BE012084F828040121204600F0A9
:1002D00088BB002084F8280410BD044694F8280444
:1002E0000128704710B5FFF7F8FF01D1022010BDBB
:1002F00000F006F884F82410206800F06FFEE8E7AC
:10030000012084F82804704738B500F035F80D0650
:100310004CBF283000F50A7001F07F050570C9094F
:1003200041700261C37094F82814012901D10220A0
:1003300032BD00F01BF800F09DFB9DE010B500F011
:100340001BF80A064CBF283000F50A7001F07F0246
:100350000270C909417094F82814012901D10220C2
:1003600010BD00F003F800F0A2FCB2E7012284F80F
:100370002824014620687047044601F07F0004EB02
:100380004010704710B501F07F0400EB441404F5F1
:100390000A7401F07F016261A3610022E261627070
:1003A00015E001F00F0100EB4110D0F8440280B2DB
:1003B000704710B501F07F0400EB441428346261EB
:1003C000A3610022012301F07F01E26163702170CB
:1003D0002146006800F0E8FC002010BD38B5054655
:1003E0000C462106204606D500F07F0205EB42139D
:1003F00003F1280103E005EB441101F50A71012224
:100400008A7004F07F040C70C009487095F82804C5
:10041000012801D1022032BD85F82824286800F087
:1004200081FD24B9286805F22C4100F0E4FD00208C
:1004300085F8280432BD38B5044608060A4606D5B4
:1004400002F07F0304EB431505F1280003E004EB01
:10045000411000F50A700023837001F07F010170E4
:10046000D209427094F82814012901D1022032BD2A
:10047000FFF77CFF00F07BFD002084F8280432BDEC
:100480002DE9F84F0022ADF80020ADF8002000F56E
:100490000A7500F1240940F68F7A04462DE00188A0
:1004A00048F60F72114001802068B0F8501099F89A
:1004B000042001EBC20100EB410000F2044000689F
:1004C000D9F81820C0F30900C9F820000244C9F87F
:1004D00018200021204600F08DF999F8002062B123
:1004E000D9F81C0048B999F80010206841F0800143
:1004F000A0F84C10002189F80010206800F1440198
:100500000A88ADF80020120440F12C81BDF80020CB
:1005100012F00F0870D1BDF80020D306BFD50288B5
:10052000ADF80020BDF800301A0519D589892A7860
:1005300001EBC20100EB410303F20C431B68AA88E4
:10054000C3F30903EB6104F22C4100F071FD206854
:1005500001880AEA01010180204600F03DF9CCE75C
:10056000BDF800100A04C8D501880AEA010101801B
:100570002068B0F85020297802EBC10200EB42035A
:1005800003F20C431B68C3F30903002BEB6107D094
:10059000AA88696900F04CFD6869E96901446961EC
:1005A0000021204600F01EF92068B0F8501000EB42
:1005B000410029693F2900F20C4009D34A0911F092
:1005C0001F0F08BF521E920242F4004292B205E091
:1005D0004A08C90748BF521C9206120C02604BF62B
:1005E0008F7220680188114081F4405141F400412C
:1005F00041F08001018080E730F82810ADF800104C
:1006000004EB4816BDF800100A0451D530F8281044
:100610000AEA010120F8281006F50A77206897F801
:1006200000C0B97A51B9B0F8501000F0AFF82BD033
:10063000BA8879695B4600F0FBFC25E030F82C10A5
:100640004904B0F850100DD511EBCC0200EB420379
:1006500003F204431968C1F3090BBBF1000F09D081
:10066000FA8803E000F092F804D03A895B46796991
:1006700000F0DEFC2168387800F077F842F40042A0
:1006800042F0C00221F82020F9695944F9617A69E1
:100690005A447A61BB6913B139698B4504D2397800
:1006A000204600F09FF803E039782046FFF76AFE05
:1006B000BDF80000010651D5206830F8281048F632
:1006C0000F72114020F8281016F8283F2768B07ADA
:1006D000D90050B9B7F8500000F04DF827D0B288D3
:1006E0007169206800F092FC21E037F8230043068E
:1006F000B7F8500004D500F03EF80ED0F28808E0BC
:10070000091807EB410202F20C4200F039F804D05C
:1007100032897169206800F079FC2168307800F036
:1007200024F842F4404242F0800221F82020206860
:100730003178B0F8502002EBC10200EB420000F229
:1007400004400068C0F30900F061726902447261FC
:100750002046B369002B02D100F04CF8CDE6FFF73C
:1007600028FECAE60020BDE8F28F31F8202048F6C6
:100770008F731A407047091807EB410202F20442D6
:100780001368C3F30903002BF361704711EBCC022C
:1007900000EB420303F20C431968C1F3090BBBF1F0
:1007A000000F704700688949884200D0704780B5C3
:1007B0008748026842F4000202600022006800F4E8
:1007C0000000009000210098142000F0E9FCBDE832
:1007D0000240142000F001BD00F22C41D0F85C046E
:1007E00000F065BD00EB4112D0F85C04D2F83C2269
:1007F00000F088BD00EB4112D0F85C04D26B00F031
:10080000B4BDD0F85C0400F02DBE10B50446012143
:10081000D4F85C0400F015FED4F85C04BDE8104088
:1008200000F0EFBD10B50446D4F85C0400F00CFEF7
:10083000A06920B16748016841F00601016010BD60
:10084000D0F85C0400F008BE10B5044662485F4969
:10085000C0F85C44C4F82002082201604260022310
:10086000032100228360C1608261C2610262FFF7DE
:100870003DFC20B14FF497715AA000F08CFED4F8E3
:10088000200218230022002100F094FED4F8200258
:1008900058230022802100F08DFED4F82002C023CE
:1008A0000022812100F086FED4F820024FF48873E4
:1008B0000022012100F07EFED4F820024FF4807364
:1008C0000022822100F076FE002010BD10B5D0F885
:1008D0002002FFF760FC002418B102280CBF01249D
:1008E0000224204610BD38B51C461346D0F820021D
:1008F0002246FFF709FD002518B102280CBF01258B
:100900000225284632BD10B5D0F82002FFF716FDAB
:10091000002418B102280CBF01240224204610BD77
:1009200010B5D0F82002FFF759FD002418B10228B5
:100930000CBF01240224204610BD10B5D0F82002BF
:10094000FFF779FD002418B102280CBF012402240E
:10095000204610BDD0F8200201F07F02090600EB0E
:10096000421002D590F82A00704790F82A0270478A
:1009700010B5D0F82002FFF7B5FC002418B102280A
:100980000CBF01240224204610BD10B5D0F820026F
:10099000FFF70FFD002418B102280CBF0124022428
:1009A000204610BD10B5D0F82002FFF7EBFC002464
:1009B00018B102280CBF01240224204610BDD0F833
:1009C0002002FFF7EEBC054870470000005C0040C5
:1009D0001C10024010ED00E064010020E807002038
:1009E00070477047433A5C416D69745F4368617555
:1009F00064686172795C53544D33325C50726F6A33
:100A0000656374735C4941525C4941525F50726F37
:100A10006A656374735C4D61696E5C5553425F43F4
:100A200044435F4D61696E5C5372635C75736264CD
:100A30005F636F6E662E63000EB418E0B0F840106E
:100A400041F43F41D9E2B0F8402044F2FF21D8E21E
:100A5000002070470EB4012120F8401F00220280C0
:100A6000828000210182028842F43F4202800020FD
:100A700003B070472DE9F0430A4648F68F11D3784A
:100A8000032B16D8DFE803F0020F070A00F00AF97B
:100A900041F400710BE000F005F908E000F002F904
:100AA00041F4C06103E000F0FDF841F4806120F8FA
:100AB000231011780D4630F8256048F68F742640D3
:100AC00048F280033143194320F825104BF68F7507
:100AD000917A92F8008000294CF2800648F6BF77A0
:100AE00048F2C00C57D1918849084FEA4109517822
:100AF0000029B0F8501001EBC80117D000EB4101FC
:100B000001F58061C1F80090117830F821506E062F
:100B100006D530F821502C404CEA040420F821403E
:100B200000F0B3F8174087F020077BE000EB4107A7
:100B300007F58167C7F80090B0F85010177801EBFF
:100B4000C70100EB410E11693F290EF20C4E09D38B
:100B50004F0911F01F0F08BF7F1EBF0247F4004767
:100B6000BFB205E04F08C90748BF7F1CBF063F0C56
:100B7000CEF80070117830F821707F0405D530F878
:100B800021703C40344320F8214000F07EF81540AD
:100B900085F440556DE030F82810214041F40141C2
:100BA00041F0800120F8281000F073F801F5806909
:100BB000D18849084900C9F8001000F06AF801F529
:100BC000816E118949084900CEF80010517892F8D9
:100BD00000E0002930F82E1026D1490405D530F860
:100BE0002E1021400E4320F82E60117830F821603D
:100BF000760606D530F8216026404CEA060620F835
:100C00002160117830F8216034404CEA040400F08F
:100C100036F8254085F440551D4320F8215000F05A
:100C200034F817403B4325E0490405D530F82E1031
:100C30002140314320F82E10117830F821E05FEA8E
:100C40004E6807D530F821E004EA0E0E4CEA0E0C8F
:100C500020F821C0117830F821C004EA0C04344394
:100C600000F00DF827401F4320F8217000F00DF828
:100C700015402B4320F821300020BDE8F08320F8F8
:100C80002140117830F821407047117830F8212048
:100C90007047B0F8501092F8008001EBC80100EBEB
:100CA00041017047137830F82340214070472DE907
:100CB000F041024691F800E048788B7A4BF68F7647
:100CC0004CF2800848F2800448F6BF7548F2C00C28
:100CD00048F68F77BBB9002832F82E0009D04306BA
:100CE00028D532F82E0007404CEA070022F82E00E3
:100CF00020E0430439D532F82E00074048EA0700C7
:100D000022F82E0031E0002832F82E001AD14304D8
:100D100006D532F82E00384048EA000022F82E00AE
:100D200000F031F84CEA070300F027F81E40264394
:100D300022F82060087832F820100D402C4322F869
:100D4000204019E0430406D532F82E00384048EA26
:100D5000000022F82E0000F016F848EA070300F021
:100D60000CF81D40254322F82050087832F8201056
:100D70000E40264322F82060B5E022F820300878A3
:100D800032F820307047087832F820305B0606D5FC
:100D900032F820303B404CEA030322F82030087838
:100DA00032F820301F4070472DE9F0410D46804653
:100DB0006A78A8692969012A074648F2800640D165
:100DC00081423ABF0F46C01B0020A861A87A28B90B
:100DD000AA8800F091F800F09AF829E02878C1007C
:100DE00038F820004206B8F8500003D500F088F823
:100DF0002A8902E000F084F8EA8800F07DF868783B
:100E000048F68F7140B9287838F82020114041F415
:100E1000004141F0C00109E0012809D1287838F8E3
:100E20002020114041F4404141F0800128F8201079
:100E3000297838F8212048F6BF70024082F030024D
:100E40004EE081423ABF0F46C01B0020A97AA8613C
:100E50007B0800294FEA571C07F001001AD0BAB9E5
:100E600000F044F808EB41013F2F01F2044109D39F
:100E7000624617F01F0F08BF521E920242F4004252
:100E800092B204E01A4600B1521C9206120C0A609B
:100E90006978C9B900F02AF808EB41043F2F04F241
:100EA0000C440BD317F01F0F08BFACF1010C4FEA35
:100EB0008C2040F4004080B2206009E000B15B1C4F
:100EC0009B061B0C236003E0012901D100F01FF8F1
:100ED0004BF68F70297838F82120024082F4405276
:100EE000164328F821600020BDE8F081B8F85010C2
:100EF0002A7801EBC20170476969BBB2404685E0C0
:100F0000091808EB410404F2044427607047B8F85C
:100F10005000297800EBC10008EB400404F20444BF
:100F20002760704710B50A7848F2800352B90288EA
:100F30004BF6BF710A4082F4805282F010021343D4
:100F4000038012E0497830F82240002905D048F6A5
:100F5000BF710C4084F0100404E04BF68F710C401C
:100F600084F48054234320F82230002010BD70B553
:100F70004A780C78002A30F8242048F2800348F69A
:100F80008F7513D0560608D530F82420154045F447
:100F9000004545F0C00520F824500A7830F822407A
:100FA00048F6BF710C4084F0300412E0560408D5B6
:100FB00030F82420154045F4404545F0800520F8E0
:100FC00024500A7830F822404BF68F710C4084F49C
:100FD0004054234320F82230002070BD11B98021F5
:100FE000A0F84C1000207047002070470020704788
:100FF000B0F84400704700207047A0F8401000206F
:1010000070470A40A0F840200020704710B500EB60
:1010100042005B1C00F580605B1007E00A784C78AA
:1010200042EA0422891C20F8042B5B1EF6D110BD75
:1010300000EB42005B1C00F580605B1004E050F8A0
:10104000042B21F8022B5B1EF9D1704762B38B078A
:1010500008D0521E11F8013B00F8013B00F024803B
:101060008B07F6D1830740F0208000BF103A07D3EA
:1010700030B4B1E83810103AA0E83810F9D230BCDA
:10108000530724BFB1E80810A0E8081044BF51F886
:10109000043B40F8043BD20724BF31F8022B20F870
:1010A000022B44BF0B7803707047121F17D35B00ED
:1010B00009D151F8043B20F8023B1B0C121F20F809
:1010C000023BF6D20BE051F8043B00F8013B1B0A4F
:1010D00020F8023B1B0C121F00F8013BF3D238BF73
:1010E000121D521E24BF11F8013B00F8013BF8D835
:1010F0007047F0B40246106895681318506803EB07
:101100005004C0071DD54D441BE013F8017B05F8C2
:10111000017B491EF9D1A0B1B60813F8011B06F0F6
:101120000306032E08BF13F8016B01EB06214942A9
:10113000801C294405D011F8016B05F8016B401E95
:10114000F9D1A3420ED013F8016B16F0030104BFCE
:1011500013F8011BC91C30090F28DAD113F8010B51
:101160000F30D6E7F0BC02F10C0070470901020015
:1011700006D52F4A00F00F00104400F8041C7047F9
:101180002C4B195470472C4B19684FF6FF02000284
:10119000114000F4E0600843284908431860704794
:1011A00038B5254B1C68C4F30223C3F10704052C92
:1011B00028BF04241D1D072D34BF0023DB1E01257D
:1011C00005FA04F4641E2140994005FA03F35B1EFE
:1011D0001A401143BDE83440C8E7012200F01F0166
:1011E000174BFFE78A40400943F82020704710B5AD
:1011F000401EB0F1807F01D3012010BD114C606012
:101200000F214FF0FF30FFF7B1FF0021A160072051
:101210002060002010BD04280A4904D1086840F06D
:101220000400086070470A6822F004020A607047F0
:1012300018ED00E000E400E00CED00E00000FA052D
:1012400000E100E010E000E000F000B8704738B5C1
:1012500008B9022032BD00F5FE74A3690BB1002568
:10126000A56101B16161012121700270FFF7ECFA03
:10127000002032BD0246002011B1C2F8141270479E
:101280000220704780B5FFF721FB002002BD10B59A
:10129000D0F8142202241AB11268904700B9002431
:1012A000204610BD80B5D0F814225368E6E038B56A
:1012B000044604F50275284600F029FB04F5FA708F
:1012C00001210160428B017D426011F01F0003D0BB
:1012D00002280BD005D30EE02946204600F084F901
:1012E0000EE02946204600F01AFA09E02946204679
:1012F00000F030FA04E001F080012046FFF710FB17
:10130000002032BD38B5044610460A0004F5FA73D1
:1013100020D11968032926D104F586714A680D6821
:10132000AA420AD2AD1A0D60954238BF2A4601463C
:1013300092B2204600F047FB15E0196A086928B10F
:10134000187A032802D1096920468847204600F010
:1013500042FB08E01A6A906928B1187A032802D182
:10136000926920469047002032BD38B504461046A9
:101370000A0004F5FA7539D12968022930D1E269E9
:10138000216A914207D2521AE261014692B2204686
:1013900000F007FB11E0A269B2FBF1F001FB1020A5
:1013A00090B98A4210D3686882420DD2002200218F
:1013B000204600F0F6FA0020686000230022002199
:1013C0002046FFF7EFFA0BE0296AC86828B1287AAF
:1013D000032802D1C96820468847204600F002FB56
:1013E000287B01280BD10021297308E02A6A506963
:1013F00028B1287A032802D152692046904700205C
:1014000032BD10B50446402300220021FFF76BFADD
:101410004022C4F810214023002280212046FFF7FB
:1014200062FA402004F5FE7220620121D069117039
:1014300028B1926961685368C9B220469847002074
:1014400010BD01740020704700F5FE700422017881
:10145000417002700020704700F5FE704178017005
:101460000020704780B500F5FE710A78032A03D189
:101470008969C96901B18847002002BD98470020E9
:1014800002BD30B4002513E050F8042BD30744BF4D
:10149000A9F101039A18091F042942F8045BFAD242
:1014A00013468C0744BF15809B1CC90748BF1D709D
:1014B00050F8041B0029E7D130BC704780B588B0D4
:1014C0000DF1040034A11922FFF7C0FD00F092FADB
:1014D00000F028F81248016841F01001016002682C
:1014E00002F0100200920099026842F020020260AD
:1014F000036803F0200300930099026842F004029D
:101500000260006800F004000090009800F084FA87
:10151000192101A800F0BAFA642000F0CFFAF7E729
:101520001810024000B54FF480314FF400328FB0F4
:10153000069107920D9101200590099002224FF427
:10154000E0110C920E9105A800F0CCFA00B1FEE774
:10155000022101910F204FF480610090002203913D
:10156000029204920221684600F048FC00B1FEE7B6
:1015700000F0F1FC4FF47A71B0FBF1F0FFF737FEA9
:101580000420FFF748FE002200214FF0FF30FFF754
:1015900007FE0FB000BDFEE753686977616E6920F2
:1015A0006973206120676F6F6420426162790A0D60
:1015B0000000000010B50C0605D501F07F0100EB1E
:1015C0004110283003E000EB411101F50A701AB90F
:1015D00000218172838004E0C38001211B0C817291
:1015E0000381002010BD0000F8B50D460446687860
:1015F000092804F5FE7646D8DFE800F0647B4574E0
:10160000450905455323204600F008F980E0A888E5
:10161000002804BFE888002835D13078AF78032847
:1016200007F07F072FD0B77039462046FFF7A0F9A3
:1016300000F08DF8002F07BF0121317002203070BB
:1016400066E0344F68883870397802291BDA3378BD
:10165000022B08461AD0032B15D131B90220307065
:1016600061602046FFF71EFE50E0616888424DD061
:10167000C9B22046FFF716FE397861602046FFF7B1
:1016800006FE022842D100F047F841E000293DD093
:101690006060032030702046FFF7F9FD0228F2D089
:1016A00034E0E8880128EED13178022904D00329FA
:1016B000E9D10122211D11E00020A060012204F1E6
:1016C00008010BE03078801E0128DCD8B0680121C9
:1016D00000B10321E160022204F10C01204600F078
:1016E00058F915E06888012812D10121B160294616
:1016F00008E03078801E0128C5D86A88012A07D101
:101700000020B0602046B2699368984700F01FF847
:101710000020F2BD090E0020294620460BE138B515
:10172000044604F5FE720D46107803280BD1287983
:10173000022808DA9269936820469847E88820B919
:1017400000F005F801E0FFF7E8FF002032BD204679
:1017500000F041B970B50D4604462878297900F0AB
:101760006000202804F5FE7602D100F051F84DE02B
:101770006A78002A01F07F0026D0012A0FD0032AC0
:1017800044D13078022810D003283DD16888B0B900
:1017900000291EBF80292046FFF7C2F80FE03278EB
:1017A000022A02D0032A04D02EE000292ED080295C
:1017B00011E06A8852BB20B12046FFF7BEF800F066
:1017C00027F8FFF7C4FF21E03278022A02D0032A6B
:1017D00006D019E0002819D02046FFF7A1F815E03F
:1017E00004EB00100B064CBF00F1140500F58275E8
:1017F0002046FFF7AFF800B10120286002222946F9
:10180000204600F0C6F801E0FFF786FF002070BD1B
:10181000B2699368294620461847000038B50D463E
:1018200004466888030A012B04F5047208D0022BD1
:1018300021D0032B2CD0062B56D0072B5BD063E096
:101840001268207C136869469847BDF8001000298B
:101850001CBFE98800290DD0BDF80010EA8891422C
:1018600088BF1146ADF800100146BDF800202046A3
:1018700000F08FF831BD207C51680028684604D103
:10188000896A884702224270DFE7C96A8847F9E718
:10189000C0B2052838D8DFE800F003090F151B2176
:1018A0001268207C536869469847CEE71268207C0E
:1018B000936869469847C8E71268207CD3686946F0
:1018C0009847C2E71268207C136969469847BCE7CD
:1018D0001268207C536969469847B6E71268207CF5
:1018E000936969469847B0E7207C68B951684A6BAC
:1018F00068469047A9E7207C30B951680A6B684672
:10190000904707214170A0E7FFF707FF31BD0A7834
:1019100002704B7843708A78CB7802EB03224280C6
:101920004B790A7902EB032282808A79C97902EB2A
:101930000122C280704710B504468021FEF7F0FFF7
:101940002046BDE810400021FEF7EABF00280B4604
:1019500000D1704770B50146002400E0641C11F806
:10196000015B002DFAD12406E40DA41C148011881B
:10197000197003225A70022207E010F8011BD4B23A
:10198000521C1955D6B2521C9D5501780029F4D12C
:1019900070BD80B513460222C0F8F4218361C36193
:1019A00001E080B513460A460021FEF7EEFF002055
:1019B00002BD80B513460322C0F8F42100F58472FD
:1019C0001360536001E080B513460A460021FEF71C
:1019D000E9FF002002BD80B50421C0F8F411002306
:1019E0000022E1E780B50521C0F8F41100230022B0
:1019F000ECE7000080B50748016841F01001016084
:101A00000320FFF7C0FB002000F0C6FA00F0E4FA64
:101A1000002002BD0020024010B5094C09490022F7
:101A20002046FFF714FC08492046FFF723FC07492E
:101A3000204600F0F9FB2046BDE81040FFF722BC2D
:101A4000C4050020300100201C00002020010020DF
:101A500038B5184C184D002205F58071204600F06D
:101A6000EAFB2946204600F0EEFB002032BD0020B4
:101A700070470020704710B501460E4C204600F01C
:101A8000E2FB204600F0FBFB002010BD10B5094C26
:101A9000D4F818320A46D3F8141209B1012010BD47
:101AA0000146204600F0C7FB2046BDE8104000F08C
:101AB000D0BB0000C4050020080A002038B5044649
:101AC00000F0F0FB14F1010F054602D0044908783C
:101AD000041900F0E7FB401BA042FAD331BD00BF60
:101AE000000000202DE9F8430646DFF870543078F6
:101AF000C10748D5686800F00C00042807D0686862
:101B000000F00C0008280BD16868C10308D52868CC
:101B1000810338D57068002840F0BE80012067E15D
:101B20007068B0F5803F04D1286840F480302860A8
:101B300014E008B928680AE0B0F5A02F286806D19B
:101B400040F480202860296841F4803105E020F4C9
:101B500080302860296821F480212960706868B18C
:101B600000F0A0FB04462868810300F1958000F096
:101B700099FB001B6528F6D3032039E100F092FBA6
:101B800004462868810340F1878000F08BFB001B2E
:101B90006528F6D3F0E700F085FB001B022840F231
:101BA000AA80E9E7306970B10121396000F07AFB61
:101BB00004462868810700F1DC8000F073FB001BFD
:101BC0000228F6D9D8E7386000F06CFB0446296893
:101BD000880765D500F066FB001B0228F7D9CBE724
:101BE000086000F05FFB0446686A810777D500F063
:101BF00059FB001B0228F7D9BEE708B9286A09E09B
:101C00000528286A06D140F004002862286A40F0BE
:101C1000010005E0400840002862286A20F0040026
:101C2000286241F28938F06868B100F03BFB8146D8
:101C3000286A810700F1AA8000F034FBA0EB0900BC
:101C40004045F5D398E700F02DFB8146286A8107CF
:101C500040F19C8000F026FBA0EB09004045F5D345
:101C60008AE700F01FFB001B022840F2A28083E7F6
:101C700000F018FB001B022840F2B5807CE700F062
:101C8000B9F804462868810140F1B18000F00AFBF0
:101C9000001B0228F6D96FE73078DFF8CC72810795
:101CA0001BD5686810F00C0F09D0686800F00C00B4
:101CB00008287FF477AF6868C1033FF573AF2868E1
:101CC000810703D5306901287FF428AF296870693E
:101CD00021F0F80141EAC0012960317808071DD5DB
:101CE000B069DFF8881200283FF47AAF01220A6059
:101CF00000F0D8FA0446686A81077FF54CAFDFF838
:101D000060020268D2084FF47A71B2FBF1F10091DF
:101D100000BF0098411E00280091F9D1307841079A
:101D200039D5E8690024C10009D4E86940F0805041
:101D3000E8610124E86900F0805000900098DFF825
:101D40003082D8F80000C1051BD4D8F8000040F458
:101D50008070C8F8000000F0A5FA8146D8F80000AD
:101D6000C1050ED400F09EFAA0EB09006528F5D35A
:101D700002E72868716920F0F80040EAC100286095
:101D8000ABE7F06801287FF438AF3FE71CB1E869A2
:101D900020F08050E861F06948B3696801F00C01F7
:101DA00008293FF4BBAE02287FF469AF00F022F8A7
:101DB0000446286881013FF554AF306AB0F5803F92
:101DC00005D16968B06821F40031014369606A682F
:101DD000306A716A22F4741202430A436A60012075
:101DE00000F009F80446286881017FF541AF002022
:101DF000BDE8F2830020386600F054BA2DE9F843BC
:101E00005C4F05463868894600F00700484502D215
:101E100000F079F86BD12878504C810705D56268BD
:101E2000A86822F0F002024362602978C80756D5FC
:101E30006868012802D121688A0303E0022821682A
:101E400002D18A0102D452E08A0750D5616889081C
:101E500040EA8100606041F2893800F023FA0646CA
:101E6000686801280BD1606800F00C00042836D0A7
:101E700000F018FA801B4045F5D303202DE002281E
:101E800037D1606800F00C00082828D000F00AFA6A
:101E9000801B4045F5D3F0E72878410705D56268F7
:101EA000E86822F4E062024362602978080706D5F8
:101EB0006168286921F4605141EAC001616000F065
:101EC0002DF862682C49264BC2F30312895CC84086
:101ED0001860002000F060F80020BDE8F283386848
:101EE00000F007008145D7D200F00DF8D4D00120D2
:101EF000F3E7606810F00C0FF1D000F0D3F9801B0D
:101F00004045F6D3B9E73968C90849EAC1013960E3
:101F1000386800F00700484570470000174911482D
:101F20000A6802F00C03082B00D0704710B500BF00
:101F300014A4C2F38343D203E35C08D50968584371
:101F400014A3C1F340415A5CB0FBF2F010BD184637
:101F50000B49484310BD024800687047001002401A
:101F60000C00002000127A0000004242800442422D
:101F70000070004000200240BC2300080410024012
:101F800000093D0002030405060708090A0B0C0DB1
:101F90000E0F10100102000038B50D4D0D4B2A78C0
:101FA00004464FF47A711868B1FBF2F2B0FBF2F01C
:101FB000FFF71DF950B9102C08D2002221464FF02E
:101FC000FF30FFF7EDF8AC60002032BD012032BDDC
:101FD000000000200C00002080B52448016841F07A
:101FE00001010160026802F001020092009942685A
:101FF00042F080524260406800F0805000900098AB
:102000000320FFF7C0F8002200216FF00B00FFF75C
:10201000C7F8002200216FF00A00FFF7C1F8002284
:1020200000216FF00900FFF7BBF8002200216FF0DC
:102030000400FFF7B5F8002200216FF00300FFF75E
:10204000AFF8002200216FF00100FFF7A9F800228D
:1020500000214FF0FF30FFF7A3F80548016821F099
:10206000E06141F00071016001BD00BF1810024045
:102070000400014070B506460025307C30B94FF4AD
:10208000007300F031F84FF4007303E0402300F0D8
:102090002BF84023022201213046FEF724FC0823BE
:1020A000032282213046FEF71EFC4FF40770FEF734
:1020B0008AFC040006F5067008BF0125046011D0F3
:1020C00040680168884704F5017005614561026850
:1020D000307C00280CBF4FF40073402301213046B0
:1020E000FEF760FC284670BD022281213046FEF7D3
:1020F000FABB10B504468121FEF705FC01212046FC
:10210000FEF701FC82212046FEF7FDFB04F5067474
:10211000206838B16068416888472068FEF760FC35
:1021200000202060002010BDF8B50D46044604F5DF
:10213000067329781E6811F060001ED0202824D173
:10214000EA88A2B16878090606D55B689F683146BF
:10215000B847EA88314615E006F500710870E8884E
:1021600048703146EA882046FFF723FC0DE05B68A3
:1021700068789C682946A04707E068780A2804D157
:10218000012224492046FFF704FC0020F2BDD0F8CC
:10219000180220B10021C0F814120020704702205C
:1021A000704770B500F50674256805F50176FEF7F1
:1021B00006FCB060206838B162683068D36805F505
:1021C00003719847002070BD022070BD10B500F566
:1021D000067043680168002B1EBF01F5007420786B
:1021E000FF2804D062789B689847FF202070002069
:1021F00010BD4321018008487047432101800748F2
:10220000704743210180064870470A210180054834
:1022100070470000080E00209800002054000020A5
:10222000DC000020100000200246022011B1C2F89C
:102230001C1200207047D0F8180200F502700160EF
:10224000826000207047D0F81802C0F80412002005
:10225000704710B5D0F8181279B101F50272D16843
:1022600049B90124D4608121936812689BB2FEF7BA
:102270008CFB002010BD012010BD022010BD80B5D8
:10228000D0F8181261B1D1F80422017C00290CBFEA
:102290004FF4007340230121FEF784FB002002BDB0
:1022A000022002BD01484068704700BF00000020C6
:1022B000122008800F487047042008800E4870479D
:1022C0002DE9104000F012F813A004E02DE91040B1
:1022D00000F00CF816A02146FFF738FB204610BD91
:1022E0002DE9104000F002F816A0F4E70A46034C6E
:1022F000704700004C01002060010020080C002005
:102300002DE91040FFF7F2FF12A0E4E72DE910409D
:10231000FFF7ECFF12A0DEE753544D33322056692D
:10232000727475616C20436F6D506F7274000000A1
:1023300053544D6963726F656C656374726F6E6937
:102340006373000030303030303030303030314165
:102350000000000043444320436F6E66696700003D
:1023600043444320496E74657266616365000000F2
:1023700010B50E4A0E49106840F001001060536815
:102380000C480B405360146804401460116821F439
:10239000802111604FF41F01506820F4FE0050604E
:1023A00091604FF00060044A106010BD00100240C0
:1023B0000000FFF8FFFFF6FE08ED00E0000000005F
:1023C0000000000001020304060708097047FEE749
:1023D000FEE7FEE7FEE770477047704780B500F004
:1023E00009F8BDE80140FEF72FBF0148FDF7E2BE46
:1023F0006401002002494A68087882184A607047E0
:102400000000002010B5074979441831064C7C447F
:10241000163404E00A68081D114488470146A142A9
:10242000F8D110BD080000002400000057F0FFFFA5
:10243000A80C00006401002000000000B7ECFFFFC2
:1024400018010000A60100000000002000F00DF8B7
:10245000002801D0FFF7D6FFAFF300800020AFF3D4
:102460000080FFF72BF800F002F80120704700F021
:1024700001B800000746384600F002F8FBE700000C
:1024800080B5AFF30080024A11001820ABBEFBE715
:1024900026000200014880470148004771230008D8
:1024A000A5240008AFF30080AFF30080FFF7CEFF54
:1024B000FFF7FEBFFFF7FEBFFFF7FEBFFFF7FEBF50
:1024C000FFF7FEBFFFF7FEBFFFF7FEBFFFF7FEBF40
:1024D000FFF7FEBFFFF7FEBFFFF7FEBFFFF7FEBF30
:1024E000FFF7FEBFFFF7FEBFFFF7FEBFFFF7FEBF20
:1024F000FFF7FEBFFFF7FEBFFFF7FEBFFFF7FEBF10
:10250000FFF7FEBFFFF7FEBFFFF7FEBFFFF7FEBFFF
:10251000FFF7FEBFFFF7FEBFFFF7FEBFFFF7FEBFEF
:10252000FFF7FEBFFFF7FEBFFFF7FEBFFFF7FEBFDF
:10253000FFF7FEBFFFF7FEBFFFF7FEBFFFF7FEBFCF
:10254000FFF7FEBFFFF7FEBFFFF7FEBFFFF7FEBFBF
:10255000FFF7FEBFFFF7FEBF430100012210081086
:1025600005A24A040A0600020B2240181003752037
:102570000008F3042002292100081F12CD08128F41
:102580000452A310610112FB1012F3041003032282
:1025900000080B04100D09024300020100C03209BB
:1025A00004000001020B101E052400100105240187
:1025B0000001042402020524060001070582030825
:1025C000001009040100020A4E1002070501027BF7
:1025D000200107058107F2280044224007228107D5
:1025E000200100090744F2130444F207FF441003DA
:1025F000511A00086F0412730412770412B1E0122A
:10260000B90412CD0412C10412E104100301230025
:10261000080D0412124310060202004083044057C2
:0B2620007917020345000204030904BF
:04000005080024A526
:00000001FF
